{
  "contractName": "Cert",
  "abi": [
    {
      "inputs": [],
      "payable": false,
      "stateMutability": "nonpayable",
      "type": "constructor"
    },
    {
      "anonymous": false,
      "inputs": [
        {
          "indexed": true,
          "internalType": "address",
          "name": "_addr",
          "type": "address"
        },
        {
          "indexed": false,
          "internalType": "uint256",
          "name": "adminIndex",
          "type": "uint256"
        }
      ],
      "name": "AdminAdded",
      "type": "event"
    },
    {
      "anonymous": false,
      "inputs": [
        {
          "indexed": false,
          "internalType": "uint256",
          "name": "_newLimit",
          "type": "uint256"
        }
      ],
      "name": "AdminLimitChanged",
      "type": "event"
    },
    {
      "anonymous": false,
      "inputs": [
        {
          "indexed": true,
          "internalType": "address",
          "name": "_addr",
          "type": "address"
        },
        {
          "indexed": false,
          "internalType": "uint256",
          "name": "adminIndex",
          "type": "uint256"
        }
      ],
      "name": "AdminRemoved",
      "type": "event"
    },
    {
      "anonymous": false,
      "inputs": [
        {
          "indexed": false,
          "internalType": "string",
          "name": "_email",
          "type": "string"
        },
        {
          "indexed": false,
          "internalType": "string",
          "name": "_link",
          "type": "string"
        },
        {
          "indexed": false,
          "internalType": "enum Cert.assignmentStatus",
          "name": "_status",
          "type": "uint8"
        },
        {
          "indexed": false,
          "internalType": "uint16",
          "name": "assignmentIndex",
          "type": "uint16"
        }
      ],
      "name": "AssignmentAdded",
      "type": "event"
    },
    {
      "anonymous": false,
      "inputs": [
        {
          "indexed": false,
          "internalType": "string",
          "name": "_email",
          "type": "string"
        },
        {
          "indexed": false,
          "internalType": "enum Cert.assignmentStatus",
          "name": "_status",
          "type": "uint8"
        },
        {
          "indexed": false,
          "internalType": "uint16",
          "name": "assignmentIndex",
          "type": "uint16"
        }
      ],
      "name": "AssignmentUpdated",
      "type": "event"
    },
    {
      "anonymous": false,
      "inputs": [
        {
          "indexed": false,
          "internalType": "address",
          "name": "_addr",
          "type": "address"
        },
        {
          "indexed": false,
          "internalType": "uint256",
          "name": "_value",
          "type": "uint256"
        }
      ],
      "name": "Donate",
      "type": "event"
    },
    {
      "anonymous": false,
      "inputs": [
        {
          "indexed": false,
          "internalType": "address",
          "name": "_addr",
          "type": "address"
        },
        {
          "indexed": false,
          "internalType": "uint256",
          "name": "_value",
          "type": "uint256"
        }
      ],
      "name": "Donatee",
      "type": "event"
    },
    {
      "anonymous": false,
      "inputs": [
        {
          "indexed": true,
          "internalType": "address",
          "name": "previousOwner",
          "type": "address"
        },
        {
          "indexed": true,
          "internalType": "address",
          "name": "newOwner",
          "type": "address"
        }
      ],
      "name": "OwnershipTransferred",
      "type": "event"
    },
    {
      "anonymous": false,
      "inputs": [
        {
          "indexed": false,
          "internalType": "string",
          "name": "_email",
          "type": "string"
        },
        {
          "indexed": false,
          "internalType": "bytes32",
          "name": "fName",
          "type": "bytes32"
        },
        {
          "indexed": false,
          "internalType": "bytes32",
          "name": "lName",
          "type": "bytes32"
        },
        {
          "indexed": false,
          "internalType": "bytes32",
          "name": "commd",
          "type": "bytes32"
        },
        {
          "indexed": false,
          "internalType": "enum Cert.grades",
          "name": "_grade",
          "type": "uint8"
        }
      ],
      "name": "StudentAdded",
      "type": "event"
    },
    {
      "anonymous": false,
      "inputs": [
        {
          "indexed": false,
          "internalType": "string",
          "name": "_email",
          "type": "string"
        },
        {
          "indexed": false,
          "internalType": "bytes32",
          "name": "nCommendation",
          "type": "bytes32"
        }
      ],
      "name": "StudentCommendationUpdated",
      "type": "event"
    },
    {
      "anonymous": false,
      "inputs": [
        {
          "indexed": false,
          "internalType": "string",
          "name": "_email",
          "type": "string"
        },
        {
          "indexed": false,
          "internalType": "string",
          "name": "_newEmail",
          "type": "string"
        }
      ],
      "name": "StudentEmailUpdated",
      "type": "event"
    },
    {
      "anonymous": false,
      "inputs": [
        {
          "indexed": false,
          "internalType": "string",
          "name": "_email",
          "type": "string"
        },
        {
          "indexed": false,
          "internalType": "enum Cert.grades",
          "name": "_newgrade",
          "type": "uint8"
        }
      ],
      "name": "StudentGradeUpdated",
      "type": "event"
    },
    {
      "anonymous": false,
      "inputs": [
        {
          "indexed": false,
          "internalType": "string",
          "name": "_email",
          "type": "string"
        },
        {
          "indexed": false,
          "internalType": "bytes32",
          "name": "nFirstName",
          "type": "bytes32"
        },
        {
          "indexed": false,
          "internalType": "bytes32",
          "name": "nLastName",
          "type": "bytes32"
        }
      ],
      "name": "StudentNameUpdated",
      "type": "event"
    },
    {
      "anonymous": false,
      "inputs": [
        {
          "indexed": false,
          "internalType": "string",
          "name": "_email",
          "type": "string"
        }
      ],
      "name": "StudentRemoved",
      "type": "event"
    },
    {
      "payable": true,
      "stateMutability": "payable",
      "type": "fallback"
    },
    {
      "constant": true,
      "inputs": [],
      "name": "adminIndex",
      "outputs": [
        {
          "internalType": "uint256",
          "name": "",
          "type": "uint256"
        }
      ],
      "payable": false,
      "stateMutability": "view",
      "type": "function"
    },
    {
      "constant": true,
      "inputs": [
        {
          "internalType": "address",
          "name": "",
          "type": "address"
        }
      ],
      "name": "admins",
      "outputs": [
        {
          "internalType": "bool",
          "name": "authorized",
          "type": "bool"
        },
        {
          "internalType": "uint256",
          "name": "id",
          "type": "uint256"
        }
      ],
      "payable": false,
      "stateMutability": "view",
      "type": "function"
    },
    {
      "constant": true,
      "inputs": [
        {
          "internalType": "uint256",
          "name": "",
          "type": "uint256"
        }
      ],
      "name": "adminsReverseMapping",
      "outputs": [
        {
          "internalType": "address",
          "name": "",
          "type": "address"
        }
      ],
      "payable": false,
      "stateMutability": "view",
      "type": "function"
    },
    {
      "constant": true,
      "inputs": [],
      "name": "isOwner",
      "outputs": [
        {
          "internalType": "bool",
          "name": "",
          "type": "bool"
        }
      ],
      "payable": false,
      "stateMutability": "view",
      "type": "function"
    },
    {
      "constant": true,
      "inputs": [],
      "name": "maxAdmins",
      "outputs": [
        {
          "internalType": "uint256",
          "name": "",
          "type": "uint256"
        }
      ],
      "payable": false,
      "stateMutability": "view",
      "type": "function"
    },
    {
      "constant": true,
      "inputs": [],
      "name": "owner",
      "outputs": [
        {
          "internalType": "address",
          "name": "",
          "type": "address"
        }
      ],
      "payable": false,
      "stateMutability": "view",
      "type": "function"
    },
    {
      "constant": true,
      "inputs": [],
      "name": "studentIndex",
      "outputs": [
        {
          "internalType": "uint256",
          "name": "",
          "type": "uint256"
        }
      ],
      "payable": false,
      "stateMutability": "view",
      "type": "function"
    },
    {
      "constant": true,
      "inputs": [],
      "name": "totalWeiDonations",
      "outputs": [
        {
          "internalType": "uint256",
          "name": "",
          "type": "uint256"
        }
      ],
      "payable": false,
      "stateMutability": "view",
      "type": "function"
    },
    {
      "constant": false,
      "inputs": [
        {
          "internalType": "address",
          "name": "_addr",
          "type": "address"
        }
      ],
      "name": "addAdmin",
      "outputs": [],
      "payable": false,
      "stateMutability": "nonpayable",
      "type": "function"
    },
    {
      "constant": false,
      "inputs": [
        {
          "internalType": "address",
          "name": "_addr",
          "type": "address"
        }
      ],
      "name": "removeAdmin",
      "outputs": [],
      "payable": false,
      "stateMutability": "nonpayable",
      "type": "function"
    },
    {
      "constant": false,
      "inputs": [
        {
          "internalType": "uint256",
          "name": "_newLimit",
          "type": "uint256"
        }
      ],
      "name": "changeAdminLimit",
      "outputs": [],
      "payable": false,
      "stateMutability": "nonpayable",
      "type": "function"
    },
    {
      "constant": false,
      "inputs": [
        {
          "internalType": "address",
          "name": "_addr",
          "type": "address"
        }
      ],
      "name": "transferOwnership",
      "outputs": [],
      "payable": false,
      "stateMutability": "nonpayable",
      "type": "function"
    },
    {
      "constant": false,
      "inputs": [],
      "name": "renounceOwnership",
      "outputs": [],
      "payable": false,
      "stateMutability": "nonpayable",
      "type": "function"
    },
    {
      "constant": false,
      "inputs": [
        {
          "internalType": "string",
          "name": "_firstName",
          "type": "string"
        },
        {
          "internalType": "string",
          "name": "_lastName",
          "type": "string"
        },
        {
          "internalType": "string",
          "name": "_commendation",
          "type": "string"
        },
        {
          "internalType": "enum Cert.grades",
          "name": "_grade",
          "type": "uint8"
        },
        {
          "internalType": "string",
          "name": "_email",
          "type": "string"
        }
      ],
      "name": "addStudent",
      "outputs": [],
      "payable": false,
      "stateMutability": "nonpayable",
      "type": "function"
    },
    {
      "constant": true,
      "inputs": [
        {
          "internalType": "string",
          "name": "_email",
          "type": "string"
        }
      ],
      "name": "searchStudent",
      "outputs": [
        {
          "internalType": "string",
          "name": "firstName",
          "type": "string"
        },
        {
          "internalType": "string",
          "name": "lastName",
          "type": "string"
        },
        {
          "internalType": "string",
          "name": "commendation",
          "type": "string"
        },
        {
          "internalType": "enum Cert.grades",
          "name": "grade",
          "type": "uint8"
        },
        {
          "internalType": "uint16",
          "name": "assignmentIndex",
          "type": "uint16"
        },
        {
          "internalType": "bool",
          "name": "active",
          "type": "bool"
        }
      ],
      "payable": false,
      "stateMutability": "view",
      "type": "function"
    },
    {
      "constant": false,
      "inputs": [
        {
          "internalType": "string",
          "name": "_email",
          "type": "string"
        }
      ],
      "name": "removeStudent",
      "outputs": [],
      "payable": false,
      "stateMutability": "nonpayable",
      "type": "function"
    },
    {
      "constant": false,
      "inputs": [
        {
          "internalType": "string",
          "name": "_email",
          "type": "string"
        },
        {
          "internalType": "string",
          "name": "_newFirstName",
          "type": "string"
        },
        {
          "internalType": "string",
          "name": "_newLastName",
          "type": "string"
        }
      ],
      "name": "changeStudentName",
      "outputs": [],
      "payable": false,
      "stateMutability": "nonpayable",
      "type": "function"
    },
    {
      "constant": false,
      "inputs": [
        {
          "internalType": "string",
          "name": "_email",
          "type": "string"
        },
        {
          "internalType": "string",
          "name": "_newCommendation",
          "type": "string"
        }
      ],
      "name": "changeStudentCommendation",
      "outputs": [],
      "payable": false,
      "stateMutability": "nonpayable",
      "type": "function"
    },
    {
      "constant": false,
      "inputs": [
        {
          "internalType": "string",
          "name": "_email",
          "type": "string"
        },
        {
          "internalType": "enum Cert.grades",
          "name": "_newgrade",
          "type": "uint8"
        }
      ],
      "name": "changeStudentGrade",
      "outputs": [],
      "payable": false,
      "stateMutability": "nonpayable",
      "type": "function"
    },
    {
      "constant": false,
      "inputs": [
        {
          "internalType": "string",
          "name": "_email",
          "type": "string"
        },
        {
          "internalType": "string",
          "name": "_newEmail",
          "type": "string"
        }
      ],
      "name": "changeStudentEmail",
      "outputs": [],
      "payable": false,
      "stateMutability": "nonpayable",
      "type": "function"
    },
    {
      "constant": false,
      "inputs": [
        {
          "internalType": "string",
          "name": "_email",
          "type": "string"
        },
        {
          "internalType": "string",
          "name": "_link",
          "type": "string"
        },
        {
          "internalType": "enum Cert.assignmentStatus",
          "name": "_status",
          "type": "uint8"
        },
        {
          "internalType": "bool",
          "name": "isFinalProject",
          "type": "bool"
        }
      ],
      "name": "addAssignment",
      "outputs": [],
      "payable": false,
      "stateMutability": "nonpayable",
      "type": "function"
    },
    {
      "constant": false,
      "inputs": [
        {
          "internalType": "string",
          "name": "_email",
          "type": "string"
        },
        {
          "internalType": "enum Cert.assignmentStatus",
          "name": "_status",
          "type": "uint8"
        },
        {
          "internalType": "bool",
          "name": "isFinalProject",
          "type": "bool"
        }
      ],
      "name": "updateAssignmentStatus",
      "outputs": [],
      "payable": false,
      "stateMutability": "nonpayable",
      "type": "function"
    },
    {
      "constant": true,
      "inputs": [
        {
          "internalType": "string",
          "name": "_email",
          "type": "string"
        },
        {
          "internalType": "uint16",
          "name": "_assignmentIndex",
          "type": "uint16"
        }
      ],
      "name": "getAssignmentInfo",
      "outputs": [
        {
          "internalType": "string",
          "name": "link",
          "type": "string"
        },
        {
          "internalType": "enum Cert.assignmentStatus",
          "name": "status",
          "type": "uint8"
        }
      ],
      "payable": false,
      "stateMutability": "view",
      "type": "function"
    },
    {
      "constant": false,
      "inputs": [],
      "name": "donateEth",
      "outputs": [],
      "payable": true,
      "stateMutability": "payable",
      "type": "function"
    },
    {
      "constant": false,
      "inputs": [],
      "name": "withdrawEth",
      "outputs": [],
      "payable": true,
      "stateMutability": "payable",
      "type": "function"
    }
  ],
  "bytecode": "0x608060405260006001556000600255600060035560006004553480156200002557600080fd5b50336000806101000a81548173ffffffffffffffffffffffffffffffffffffffff021916908373ffffffffffffffffffffffffffffffffffffffff1602179055506000809054906101000a900473ffffffffffffffffffffffffffffffffffffffff1673ffffffffffffffffffffffffffffffffffffffff16600073ffffffffffffffffffffffffffffffffffffffff167f8be0079c531659141344cd1fd0a4f28419497f9722a3daafe3b4186f6b6457e060405160405180910390a36002600181905550620000fb336200010160201b60201c565b6200029a565b60001515600560008373ffffffffffffffffffffffffffffffffffffffff1673ffffffffffffffffffffffffffffffffffffffff16815260200190815260200160002060000160009054906101000a900460ff16151514156200027a576001600560008373ffffffffffffffffffffffffffffffffffffffff1673ffffffffffffffffffffffffffffffffffffffff16815260200190815260200160002060000160006101000a81548160ff021916908315150217905550600254600560008373ffffffffffffffffffffffffffffffffffffffff1673ffffffffffffffffffffffffffffffffffffffff168152602001908152602001600020600101819055508060066000600254815260200190815260200160002060006101000a81548173ffffffffffffffffffffffffffffffffffffffff021916908373ffffffffffffffffffffffffffffffffffffffff1602179055506200027360016002546200027d60201b6200514f1790919060201c565b6002819055505b50565b6000808284019050838110156200029057fe5b8091505092915050565b61550180620002aa6000396000f3fe6080604052600436106101665760003560e01c80638da5cb5b116100d1578063aadd1b031161008a578063edd6cfb111610064578063edd6cfb114610ce5578063f27de6db14610d6b578063f2fde38b14610dfe578063f30319c314610e4f57610166565b8063aadd1b0314610bd5578063d2b22c1a14610bdf578063dc63c3e914610c0a57610166565b80638da5cb5b1461079d5780638f32d59b146107f4578063916e0b7d1461082357806394dd2e50146109175780639bada32614610aa9578063a0ef91df14610bcb57610166565b8063429b62e511610123578063429b62e5146104ef578063704802751461055f578063715018a6146105b057806376ae8fe4146105c75780637a8ec57a146106f75780638702f2ac1461077257610166565b80630334982e14610168578063151b151c1461020757806315436f6814610232578063170edcd6146104385780631785f53c1461047357806334839ea9146104c4575b005b34801561017457600080fd5b506102056004803603606081101561018b57600080fd5b81019080803590602001906401000000008111156101a857600080fd5b8201836020820111156101ba57600080fd5b803590602001918460018302840111640100000000831117156101dc57600080fd5b9091929391929390803560ff169060200190929190803515159060200190929190505050610f2a565b005b34801561021357600080fd5b5061021c611494565b6040518082815260200191505060405180910390f35b34801561023e57600080fd5b506102b66004803603602081101561025557600080fd5b810190808035906020019064010000000081111561027257600080fd5b82018360208201111561028457600080fd5b803590602001918460018302840111640100000000831117156102a657600080fd5b909192939192939050505061149a565b604051808060200180602001806020018760048111156102d257fe5b60ff1681526020018661ffff1661ffff1681526020018515151515815260200184810384528a818151815260200191508051906020019080838360005b8381101561032a57808201518184015260208101905061030f565b50505050905090810190601f1680156103575780820380516001836020036101000a031916815260200191505b50848103835289818151815260200191508051906020019080838360005b83811015610390578082015181840152602081019050610375565b50505050905090810190601f1680156103bd5780820380516001836020036101000a031916815260200191505b50848103825288818151815260200191508051906020019080838360005b838110156103f65780820151818401526020810190506103db565b50505050905090810190601f1680156104235780820380516001836020036101000a031916815260200191505b50995050505050505050505060405180910390f35b34801561044457600080fd5b506104716004803603602081101561045b57600080fd5b810190808035906020019092919050505061166e565b005b34801561047f57600080fd5b506104c26004803603602081101561049657600080fd5b81019080803573ffffffffffffffffffffffffffffffffffffffff1690602001909291905050506116ca565b005b3480156104d057600080fd5b506104d9611917565b6040518082815260200191505060405180910390f35b3480156104fb57600080fd5b5061053e6004803603602081101561051257600080fd5b81019080803573ffffffffffffffffffffffffffffffffffffffff16906020019092919050505061191d565b60405180831515151581526020018281526020019250505060405180910390f35b34801561056b57600080fd5b506105ae6004803603602081101561058257600080fd5b81019080803573ffffffffffffffffffffffffffffffffffffffff16906020019092919050505061194e565b005b3480156105bc57600080fd5b506105c5611a9d565b005b3480156105d357600080fd5b506106f5600480360360608110156105ea57600080fd5b810190808035906020019064010000000081111561060757600080fd5b82018360208201111561061957600080fd5b8035906020019184600183028401116401000000008311171561063b57600080fd5b90919293919293908035906020019064010000000081111561065c57600080fd5b82018360208201111561066e57600080fd5b8035906020019184600183028401116401000000008311171561069057600080fd5b9091929391929390803590602001906401000000008111156106b157600080fd5b8201836020820111156106c357600080fd5b803590602001918460018302840111640100000000831117156106e557600080fd5b9091929391929390505050611ab0565b005b34801561070357600080fd5b506107306004803603602081101561071a57600080fd5b8101908080359060200190929190505050612021565b604051808273ffffffffffffffffffffffffffffffffffffffff1673ffffffffffffffffffffffffffffffffffffffff16815260200191505060405180910390f35b34801561077e57600080fd5b50610787612054565b6040518082815260200191505060405180910390f35b3480156107a957600080fd5b506107b261205a565b604051808273ffffffffffffffffffffffffffffffffffffffff1673ffffffffffffffffffffffffffffffffffffffff16815260200191505060405180910390f35b34801561080057600080fd5b50610809612083565b604051808215151515815260200191505060405180910390f35b34801561082f57600080fd5b506109156004803603608081101561084657600080fd5b810190808035906020019064010000000081111561086357600080fd5b82018360208201111561087557600080fd5b8035906020019184600183028401116401000000008311171561089757600080fd5b9091929391929390803590602001906401000000008111156108b857600080fd5b8201836020820111156108ca57600080fd5b803590602001918460018302840111640100000000831117156108ec57600080fd5b9091929391929390803560ff1690602001909291908035151590602001909291905050506120da565b005b34801561092357600080fd5b50610aa7600480360360a081101561093a57600080fd5b810190808035906020019064010000000081111561095757600080fd5b82018360208201111561096957600080fd5b8035906020019184600183028401116401000000008311171561098b57600080fd5b9091929391929390803590602001906401000000008111156109ac57600080fd5b8201836020820111156109be57600080fd5b803590602001918460018302840111640100000000831117156109e057600080fd5b909192939192939080359060200190640100000000811115610a0157600080fd5b820183602082011115610a1357600080fd5b80359060200191846001830284011164010000000083111715610a3557600080fd5b9091929391929390803560ff16906020019092919080359060200190640100000000811115610a6357600080fd5b820183602082011115610a7557600080fd5b80359060200191846001830284011164010000000083111715610a9757600080fd5b9091929391929390505050612703565b005b348015610ab557600080fd5b50610b3b60048036036040811015610acc57600080fd5b8101908080359060200190640100000000811115610ae957600080fd5b820183602082011115610afb57600080fd5b80359060200191846001830284011164010000000083111715610b1d57600080fd5b9091929391929390803561ffff169060200190929190505050612e2b565b6040518080602001836003811115610b4f57fe5b60ff168152602001828103825284818151815260200191508051906020019080838360005b83811015610b8f578082015181840152602081019050610b74565b50505050905090810190601f168015610bbc5780820380516001836020036101000a031916815260200191505b50935050505060405180910390f35b610bd36133df565b005b610bdd613537565b005b348015610beb57600080fd5b50610bf46135b8565b6040518082815260200191505060405180910390f35b348015610c1657600080fd5b50610ce360048036036040811015610c2d57600080fd5b8101908080359060200190640100000000811115610c4a57600080fd5b820183602082011115610c5c57600080fd5b80359060200191846001830284011164010000000083111715610c7e57600080fd5b909192939192939080359060200190640100000000811115610c9f57600080fd5b820183602082011115610cb157600080fd5b80359060200191846001830284011164010000000083111715610cd357600080fd5b90919293919293905050506135be565b005b348015610cf157600080fd5b50610d6960048036036020811015610d0857600080fd5b8101908080359060200190640100000000811115610d2557600080fd5b820183602082011115610d3757600080fd5b80359060200191846001830284011164010000000083111715610d5957600080fd5b9091929391929390505050613a76565b005b348015610d7757600080fd5b50610dfc60048036036040811015610d8e57600080fd5b8101908080359060200190640100000000811115610dab57600080fd5b820183602082011115610dbd57600080fd5b80359060200191846001830284011164010000000083111715610ddf57600080fd5b9091929391929390803560ff169060200190929190505050613f01565b005b348015610e0a57600080fd5b50610e4d60048036036020811015610e2157600080fd5b81019080803573ffffffffffffffffffffffffffffffffffffffff1690602001909291905050506143ab565b005b348015610e5b57600080fd5b50610f2860048036036040811015610e7257600080fd5b8101908080359060200190640100000000811115610e8f57600080fd5b820183602082011115610ea157600080fd5b80359060200191846001830284011164010000000083111715610ec357600080fd5b909192939192939080359060200190640100000000811115610ee457600080fd5b820183602082011115610ef657600080fd5b80359060200191846001830284011164010000000083111715610f1857600080fd5b9091929391929390505050614443565b005b60011515600560003373ffffffffffffffffffffffffffffffffffffffff1673ffffffffffffffffffffffffffffffffffffffff16815260200190815260200160002060000160009054906101000a900460ff16151514610fd6576040517f08c379a000000000000000000000000000000000000000000000000000000000815260040180806020018281038252602c8152602001806154a1602c913960400191505060405180910390fd5b83838080601f016020809104026020016040519081016040528093929190818152602001838380828437600081840152601f19601f82011690508083019250505050505050600760006008836040518082805190602001908083835b602083106110555780518252602082019150602081019050602083039250611032565b6001836020036101000a038019825116818451168082178552505050505050905001915050908152602001604051809103902054815260200190815260200160002060030160039054906101000a900460ff1661111a576040517f08c379a00000000000000000000000000000000000000000000000000000000081526004018080602001828103825260168152602001807f53747564656e7420646f65736e2774206578697374730000000000000000000081525060200191505060405180910390fd5b806040516020018082805190602001908083835b60208310611151578051825260208201915060208101905060208303925061112e565b6001836020036101000a03801982511681845116808217855250505050505090500191505060405160208183030381529060405280519060200120600760006008846040518082805190602001908083835b602083106111c657805182526020820191506020810190506020830392506111a3565b6001836020036101000a038019825116818451168082178552505050505050905001915050908152602001604051809103902054815260200190815260200160002060040160405160200180828054600181600116156101000203166002900480156112695780601f10611247576101008083540402835291820191611269565b820191906000526020600020905b815481529060010190602001808311611255575b505091505060405160208183030381529060405280519060200120146112f7576040517f08c379a000000000000000000000000000000000000000000000000000000000815260040180806020018281038252600f8152602001807f656d61696c206e6f7420666f756e64000000000000000000000000000000000081525060200191505060405180910390fd5b600061133c6007600060088989604051808383808284378083019250505092505050908152602001604051809103902054815260200190815260200160002084614916565b9050836007600060088989604051808383808284378083019250505092505050908152602001604051809103902054815260200190815260200160002060050160006007600060088b8b604051808383808284378083019250505092505050908152602001604051809103902054815260200190815260200160002060030160019054906101000a900461ffff1661ffff1661ffff16815260200190815260200160002060010160006101000a81548160ff021916908360038111156113fe57fe5b02179055507ffe5c758159ba89815da51c135047816cabe749c00319c6d5c065719e3b99df7786868684604051808060200184600381111561143c57fe5b60ff1681526020018361ffff1661ffff1681526020018281038252868682818152602001925080828437600081840152601f19601f8201169050808301925050509550505050505060405180910390a1505050505050565b60035481565b606080606060008060006114ea6007600060088b8b6040518083838082843780830192505050925050509081526020016040518091039020548152602001908152602001600020600001546149a5565b6115306007600060088c8c6040518083838082843780830192505050925050509081526020016040518091039020548152602001908152602001600020600101546149a5565b6115766007600060088d8d6040518083838082843780830192505050925050509081526020016040518091039020548152602001908152602001600020600201546149a5565b6007600060088d8d604051808383808284378083019250505092505050908152602001604051809103902054815260200190815260200160002060030160009054906101000a900460ff166007600060088e8e604051808383808284378083019250505092505050908152602001604051809103902054815260200190815260200160002060030160019054906101000a900461ffff166007600060088f8f604051808383808284378083019250505092505050908152602001604051809103902054815260200190815260200160002060030160039054906101000a900460ff169550955095509550955095509295509295509295565b60018110158015611680575060025481115b61168957600080fd5b806001819055507f212055f063d32bdb436074d026740d08858784553298d7651fa97fa6a3ea4297816040518082815260200191505060405180910390a150565b6116d2612083565b611744576040517f08c379a00000000000000000000000000000000000000000000000000000000081526004018080602001828103825260028152602001807f6c6c00000000000000000000000000000000000000000000000000000000000081525060200191505060405180910390fd5b806001600560008373ffffffffffffffffffffffffffffffffffffffff1673ffffffffffffffffffffffffffffffffffffffff16815260200190815260200160002060000160006101000a81548160ff0219169083151502179055611811576040517f08c379a00000000000000000000000000000000000000000000000000000000081526004018080602001828103825260138152602001807f4f6e6c792061646d696e7320616c6c6f7765640000000000000000000000000081525060200191505060405180910390fd5b61181961205a565b73ffffffffffffffffffffffffffffffffffffffff168173ffffffffffffffffffffffffffffffffffffffff1614156118ba576040517f08c379a00000000000000000000000000000000000000000000000000000000081526004018080602001828103825260148152602001807f4f6e6c79206e6f6e2d6f776e65722061646d696e00000000000000000000000081525060200191505060405180910390fd5b6118c382614b38565b8173ffffffffffffffffffffffffffffffffffffffff167fa0726c73cf6ad18ddb855ba65d1ddd4d7fd37d320f4e52f6b154c13d386f5fd96002546040518082815260200191505060405180910390a25050565b60015481565b60056020528060005260406000206000915090508060000160009054906101000a900460ff16908060010154905082565b611956612083565b6119c8576040517f08c379a00000000000000000000000000000000000000000000000000000000081526004018080602001828103825260028152602001807f6c6c00000000000000000000000000000000000000000000000000000000000081525060200191505060405180910390fd5b60015460025410611a41576040517f08c379a00000000000000000000000000000000000000000000000000000000081526004018080602001828103825260128152602001807f61646d696e73206d61782072656163686564000000000000000000000000000081525060200191505060405180910390fd5b611a4a81614e70565b8073ffffffffffffffffffffffffffffffffffffffff167f723c2b747529ca7f5eb53a74808f4a8b9bf264f0fc450fd904900151da74548a6002546040518082815260200191505060405180910390a250565b611aa633614b38565b611aae614fe4565b565b60011515600560003373ffffffffffffffffffffffffffffffffffffffff1673ffffffffffffffffffffffffffffffffffffffff16815260200190815260200160002060000160009054906101000a900460ff16151514611b5c576040517f08c379a000000000000000000000000000000000000000000000000000000000815260040180806020018281038252602c8152602001806154a1602c913960400191505060405180910390fd5b85858080601f016020809104026020016040519081016040528093929190818152602001838380828437600081840152601f19601f82011690508083019250505050505050600760006008836040518082805190602001908083835b60208310611bdb5780518252602082019150602081019050602083039250611bb8565b6001836020036101000a038019825116818451168082178552505050505050905001915050908152602001604051809103902054815260200190815260200160002060030160039054906101000a900460ff16611ca0576040517f08c379a00000000000000000000000000000000000000000000000000000000081526004018080602001828103825260168152602001807f53747564656e7420646f65736e2774206578697374730000000000000000000081525060200191505060405180910390fd5b806040516020018082805190602001908083835b60208310611cd75780518252602082019150602081019050602083039250611cb4565b6001836020036101000a03801982511681845116808217855250505050505090500191505060405160208183030381529060405280519060200120600760006008846040518082805190602001908083835b60208310611d4c5780518252602082019150602081019050602083039250611d29565b6001836020036101000a03801982511681845116808217855250505050505090500191505090815260200160405180910390205481526020019081526020016000206004016040516020018082805460018160011615610100020316600290048015611def5780601f10611dcd576101008083540402835291820191611def565b820191906000526020600020905b815481529060010190602001808311611ddb575b50509150506040516020818303038152906040528051906020012014611e7d576040517f08c379a000000000000000000000000000000000000000000000000000000000815260040180806020018281038252600f8152602001807f656d61696c206e6f7420666f756e64000000000000000000000000000000000081525060200191505060405180910390fd5b6000611ecc86868080601f016020809104026020016040519081016040528093929190818152602001838380828437600081840152601f19601f8201169050808301925050505050505061511d565b90506000611f1d85858080601f016020809104026020016040519081016040528093929190818152602001838380828437600081840152601f19601f8201169050808301925050505050505061511d565b9050816007600060088c8c604051808383808284378083019250505092505050908152602001604051809103902054815260200190815260200160002060000181905550806007600060088c8c6040518083838082843780830192505050925050509081526020016040518091039020548152602001908152602001600020600101819055507fa619a98d51afdd43275f5f41dbbbbc6634a6ce2c93ee920b48ac1e7983a160f28989848460405180806020018481526020018381526020018281038252868682818152602001925080828437600081840152601f19601f8201169050808301925050509550505050505060405180910390a1505050505050505050565b60066020528060005260406000206000915054906101000a900473ffffffffffffffffffffffffffffffffffffffff1681565b60025481565b60008060009054906101000a900473ffffffffffffffffffffffffffffffffffffffff16905090565b60008060009054906101000a900473ffffffffffffffffffffffffffffffffffffffff1673ffffffffffffffffffffffffffffffffffffffff163373ffffffffffffffffffffffffffffffffffffffff1614905090565b60011515600560003373ffffffffffffffffffffffffffffffffffffffff1673ffffffffffffffffffffffffffffffffffffffff16815260200190815260200160002060000160009054906101000a900460ff16151514612186576040517f08c379a000000000000000000000000000000000000000000000000000000000815260040180806020018281038252602c8152602001806154a1602c913960400191505060405180910390fd5b85858080601f016020809104026020016040519081016040528093929190818152602001838380828437600081840152601f19601f82011690508083019250505050505050600760006008836040518082805190602001908083835b6020831061220557805182526020820191506020810190506020830392506121e2565b6001836020036101000a038019825116818451168082178552505050505050905001915050908152602001604051809103902054815260200190815260200160002060030160039054906101000a900460ff166122ca576040517f08c379a00000000000000000000000000000000000000000000000000000000081526004018080602001828103825260168152602001807f53747564656e7420646f65736e2774206578697374730000000000000000000081525060200191505060405180910390fd5b806040516020018082805190602001908083835b6020831061230157805182526020820191506020810190506020830392506122de565b6001836020036101000a03801982511681845116808217855250505050505090500191505060405160208183030381529060405280519060200120600760006008846040518082805190602001908083835b602083106123765780518252602082019150602081019050602083039250612353565b6001836020036101000a038019825116818451168082178552505050505050905001915050908152602001604051809103902054815260200190815260200160002060040160405160200180828054600181600116156101000203166002900480156124195780601f106123f7576101008083540402835291820191612419565b820191906000526020600020905b815481529060010190602001808311612405575b505091505060405160208183030381529060405280519060200120146124a7576040517f08c379a000000000000000000000000000000000000000000000000000000000815260040180806020018281038252600f8152602001807f656d61696c206e6f7420666f756e64000000000000000000000000000000000081525060200191505060405180910390fd5b60006124ec6007600060088b8b604051808383808284378083019250505092505050908152602001604051809103902054815260200190815260200160002084614916565b9050604051806040016040528087878080601f016020809104026020016040519081016040528093929190818152602001838380828437600081840152601f19601f82011690508083019250505050505050815260200185600381111561254f57fe5b8152506007600060088b8b604051808383808284378083019250505092505050908152602001604051809103902054815260200190815260200160002060050160006007600060088d8d604051808383808284378083019250505092505050908152602001604051809103902054815260200190815260200160002060030160019054906101000a900461ffff1661ffff1661ffff168152602001908152602001600020600082015181600001908051906020019061260f929190615324565b5060208201518160010160006101000a81548160ff0219169083600381111561263457fe5b02179055509050507f3288fc53eb1edec731cf67ba3821396b62c0283ffacb2610481cd3fb43f86aeb88888888888660405180806020018060200185600381111561267b57fe5b60ff1681526020018461ffff1661ffff1681526020018381038352898982818152602001925080828437600081840152601f19601f8201169050808301925050508381038252878782818152602001925080828437600081840152601f19601f8201169050808301925050509850505050505050505060405180910390a15050505050505050565b60011515600560003373ffffffffffffffffffffffffffffffffffffffff1673ffffffffffffffffffffffffffffffffffffffff16815260200190815260200160002060000160009054906101000a900460ff161515146127af576040517f08c379a000000000000000000000000000000000000000000000000000000000815260040180806020018281038252602c8152602001806154a1602c913960400191505060405180910390fd5b81818080601f016020809104026020016040519081016040528093929190818152602001838380828437600081840152601f19601f82011690508083019250505050505050600760006008836040518082805190602001908083835b6020831061282e578051825260208201915060208101905060208303925061280b565b6001836020036101000a038019825116818451168082178552505050505050905001915050908152602001604051809103902054815260200190815260200160002060030160039054906101000a900460ff16156128f4576040517f08c379a00000000000000000000000000000000000000000000000000000000081526004018080602001828103825260168152602001807f53747564656e7420616c7265616479204578697374730000000000000000000081525060200191505060405180910390fd5b806040516020018082805190602001908083835b6020831061292b5780518252602082019150602081019050602083039250612908565b6001836020036101000a03801982511681845116808217855250505050505090500191505060405160208183030381529060405280519060200120600760006008846040518082805190602001908083835b602083106129a0578051825260208201915060208101905060208303925061297d565b6001836020036101000a03801982511681845116808217855250505050505090500191505090815260200160405180910390205481526020019081526020016000206004016040516020018082805460018160011615610100020316600290048015612a435780601f10612a21576101008083540402835291820191612a43565b820191906000526020600020905b815481529060010190602001808311612a2f575b5050915050604051602081830303815290604052805190602001201415612ad2576040517f08c379a00000000000000000000000000000000000000000000000000000000081526004018080602001828103825260138152602001807f656d61696c20616c72656164792065786973740000000000000000000000000081525060200191505060405180910390fd5b6000612b218b8b8080601f016020809104026020016040519081016040528093929190818152602001838380828437600081840152601f19601f8201169050808301925050505050505061511d565b90506000612b728a8a8080601f016020809104026020016040519081016040528093929190818152602001838380828437600081840152601f19601f8201169050808301925050505050505061511d565b90506000612bc389898080601f016020809104026020016040519081016040528093929190818152602001838380828437600081840152601f19601f8201169050808301925050505050505061511d565b9050612bcd6153a4565b6000816080019061ffff16908161ffff16815250508381600001818152505082816020018181525050818160400181815250508781606001906004811115612c1157fe5b90816004811115612c1e57fe5b8152505086868080601f016020809104026020016040519081016040528093929190818152602001838380828437600081840152601f19601f820116905080830192505050505050508160c0018190525060018160a00190151590811515815250508060076000600354815260200190815260200160002060008201518160000155602082015181600101556040820151816002015560608201518160030160006101000a81548160ff02191690836004811115612cd857fe5b021790555060808201518160030160016101000a81548161ffff021916908361ffff16021790555060a08201518160030160036101000a81548160ff02191690831515021790555060c0820151816004019080519060200190612d3c929190615324565b5090505060035460088888604051808383808284378083019250505092505050908152602001604051809103902081905550612d84600160035461514f90919063ffffffff16565b6003819055507f32d5b6c08ec29a5181d1963863d515c8e55d50cefb169a5dfca8d4bf991abd3087878686868d6040518080602001868152602001858152602001848152602001836004811115612dd757fe5b60ff1681526020018281038252888882818152602001925080828437600081840152601f19601f82011690508083019250505097505050505050505060405180910390a15050505050505050505050505050565b6060600084848080601f016020809104026020016040519081016040528093929190818152602001838380828437600081840152601f19601f82011690508083019250505050505050600760006008836040518082805190602001908083835b60208310612eae5780518252602082019150602081019050602083039250612e8b565b6001836020036101000a038019825116818451168082178552505050505050905001915050908152602001604051809103902054815260200190815260200160002060030160039054906101000a900460ff16612f73576040517f08c379a00000000000000000000000000000000000000000000000000000000081526004018080602001828103825260168152602001807f53747564656e7420646f65736e2774206578697374730000000000000000000081525060200191505060405180910390fd5b806040516020018082805190602001908083835b60208310612faa5780518252602082019150602081019050602083039250612f87565b6001836020036101000a03801982511681845116808217855250505050505090500191505060405160208183030381529060405280519060200120600760006008846040518082805190602001908083835b6020831061301f5780518252602082019150602081019050602083039250612ffc565b6001836020036101000a038019825116818451168082178552505050505050905001915050908152602001604051809103902054815260200190815260200160002060040160405160200180828054600181600116156101000203166002900480156130c25780601f106130a05761010080835404028352918201916130c2565b820191906000526020600020905b8154815290600101906020018083116130ae575b50509150506040516020818303038152906040528051906020012014613150576040517f08c379a000000000000000000000000000000000000000000000000000000000815260040180806020018281038252600f8152602001807f656d61696c206e6f7420666f756e64000000000000000000000000000000000081525060200191505060405180910390fd5b60006007600060088989604051808383808284378083019250505092505050908152602001604051809103902054815260200190815260200160002060030160019054906101000a900461ffff1661ffff1610156131ad57600080fd5b6007600060088888604051808383808284378083019250505092505050908152602001604051809103902054815260200190815260200160002060030160019054906101000a900461ffff1661ffff168461ffff161115613276576040517f08c379a00000000000000000000000000000000000000000000000000000000081526004018080602001828103825260208152602001807f61737369676e6d656e74496e6465782061626f76652063757272656e7420496481525060200191505060405180910390fd5b6007600060088888604051808383808284378083019250505092505050908152602001604051809103902054815260200190815260200160002060050160008561ffff1661ffff1681526020019081526020016000206000016007600060088989604051808383808284378083019250505092505050908152602001604051809103902054815260200190815260200160002060050160008661ffff1661ffff16815260200190815260200160002060010160009054906101000a900460ff16818054600181600116156101000203166002900480601f0160208091040260200160405190810160405280929190818152602001828054600181600116156101000203166002900480156133cb5780601f106133a0576101008083540402835291602001916133cb565b820191906000526020600020905b8154815290600101906020018083116133ae57829003601f168201915b505050505091509250925050935093915050565b6133e7612083565b613459576040517f08c379a00000000000000000000000000000000000000000000000000000000081526004018080602001828103825260028152602001807f6c6c00000000000000000000000000000000000000000000000000000000000081525060200191505060405180910390fd5b600061346361205a565b905060003073ffffffffffffffffffffffffffffffffffffffff163190508173ffffffffffffffffffffffffffffffffffffffff166108fc829081150290604051600060405180830381858888f193505050501580156134c7573d6000803e3d6000fd5b507f9f484a8dece49988a19e5c4f4402b21ff99defd7349ad30e439b790d0043902f3382604051808373ffffffffffffffffffffffffffffffffffffffff1673ffffffffffffffffffffffffffffffffffffffff1681526020018281526020019250505060405180910390a15050565b6611c37937e0800034101561354b57600080fd5b7f0553260a2e46b0577270d8992db02d30856ca880144c72d6e9503760946aef133034604051808373ffffffffffffffffffffffffffffffffffffffff1673ffffffffffffffffffffffffffffffffffffffff1681526020018281526020019250505060405180910390a1565b60045481565b60011515600560003373ffffffffffffffffffffffffffffffffffffffff1673ffffffffffffffffffffffffffffffffffffffff16815260200190815260200160002060000160009054906101000a900460ff1615151461366a576040517f08c379a000000000000000000000000000000000000000000000000000000000815260040180806020018281038252602c8152602001806154a1602c913960400191505060405180910390fd5b83838080601f016020809104026020016040519081016040528093929190818152602001838380828437600081840152601f19601f82011690508083019250505050505050600760006008836040518082805190602001908083835b602083106136e957805182526020820191506020810190506020830392506136c6565b6001836020036101000a038019825116818451168082178552505050505050905001915050908152602001604051809103902054815260200190815260200160002060030160039054906101000a900460ff166137ae576040517f08c379a00000000000000000000000000000000000000000000000000000000081526004018080602001828103825260168152602001807f53747564656e7420646f65736e2774206578697374730000000000000000000081525060200191505060405180910390fd5b806040516020018082805190602001908083835b602083106137e557805182526020820191506020810190506020830392506137c2565b6001836020036101000a03801982511681845116808217855250505050505090500191505060405160208183030381529060405280519060200120600760006008846040518082805190602001908083835b6020831061385a5780518252602082019150602081019050602083039250613837565b6001836020036101000a038019825116818451168082178552505050505050905001915050908152602001604051809103902054815260200190815260200160002060040160405160200180828054600181600116156101000203166002900480156138fd5780601f106138db5761010080835404028352918201916138fd565b820191906000526020600020905b8154815290600101906020018083116138e9575b5050915050604051602081830303815290604052805190602001201461398b576040517f08c379a000000000000000000000000000000000000000000000000000000000815260040180806020018281038252600f8152602001807f656d61696c206e6f7420666f756e64000000000000000000000000000000000081525060200191505060405180910390fd5b82826007600060088989604051808383808284378083019250505092505050908152602001604051809103902054815260200190815260200160002060040191906139d79291906153fb565b507f17df9833ac28525114e09d17bcfed2f9946d564bb1be9676eeb6e9e1b431db64858585856040518080602001806020018381038352878782818152602001925080828437600081840152601f19601f8201169050808301925050508381038252858582818152602001925080828437600081840152601f19601f820116905080830192505050965050505050505060405180910390a15050505050565b60011515600560003373ffffffffffffffffffffffffffffffffffffffff1673ffffffffffffffffffffffffffffffffffffffff16815260200190815260200160002060000160009054906101000a900460ff16151514613b22576040517f08c379a000000000000000000000000000000000000000000000000000000000815260040180806020018281038252602c8152602001806154a1602c913960400191505060405180910390fd5b81818080601f016020809104026020016040519081016040528093929190818152602001838380828437600081840152601f19601f82011690508083019250505050505050600760006008836040518082805190602001908083835b60208310613ba15780518252602082019150602081019050602083039250613b7e565b6001836020036101000a038019825116818451168082178552505050505050905001915050908152602001604051809103902054815260200190815260200160002060030160039054906101000a900460ff16613c66576040517f08c379a00000000000000000000000000000000000000000000000000000000081526004018080602001828103825260168152602001807f53747564656e7420646f65736e2774206578697374730000000000000000000081525060200191505060405180910390fd5b806040516020018082805190602001908083835b60208310613c9d5780518252602082019150602081019050602083039250613c7a565b6001836020036101000a03801982511681845116808217855250505050505090500191505060405160208183030381529060405280519060200120600760006008846040518082805190602001908083835b60208310613d125780518252602082019150602081019050602083039250613cef565b6001836020036101000a03801982511681845116808217855250505050505090500191505090815260200160405180910390205481526020019081526020016000206004016040516020018082805460018160011615610100020316600290048015613db55780601f10613d93576101008083540402835291820191613db5565b820191906000526020600020905b815481529060010190602001808311613da1575b50509150506040516020818303038152906040528051906020012014613e43576040517f08c379a000000000000000000000000000000000000000000000000000000000815260040180806020018281038252600f8152602001807f656d61696c206e6f7420666f756e64000000000000000000000000000000000081525060200191505060405180910390fd5b60006007600060088686604051808383808284378083019250505092505050908152602001604051809103902054815260200190815260200160002060030160036101000a81548160ff0219169083151502179055507f38423ea25c06d2143785d918924e8169e3b337f6a91bd30ff94fdcb296a79c5b838360405180806020018281038252848482818152602001925080828437600081840152601f19601f820116905080830192505050935050505060405180910390a1505050565b60011515600560003373ffffffffffffffffffffffffffffffffffffffff1673ffffffffffffffffffffffffffffffffffffffff16815260200190815260200160002060000160009054906101000a900460ff16151514613fad576040517f08c379a000000000000000000000000000000000000000000000000000000000815260040180806020018281038252602c8152602001806154a1602c913960400191505060405180910390fd5b82828080601f016020809104026020016040519081016040528093929190818152602001838380828437600081840152601f19601f82011690508083019250505050505050600760006008836040518082805190602001908083835b6020831061402c5780518252602082019150602081019050602083039250614009565b6001836020036101000a038019825116818451168082178552505050505050905001915050908152602001604051809103902054815260200190815260200160002060030160039054906101000a900460ff166140f1576040517f08c379a00000000000000000000000000000000000000000000000000000000081526004018080602001828103825260168152602001807f53747564656e7420646f65736e2774206578697374730000000000000000000081525060200191505060405180910390fd5b806040516020018082805190602001908083835b602083106141285780518252602082019150602081019050602083039250614105565b6001836020036101000a03801982511681845116808217855250505050505090500191505060405160208183030381529060405280519060200120600760006008846040518082805190602001908083835b6020831061419d578051825260208201915060208101905060208303925061417a565b6001836020036101000a038019825116818451168082178552505050505050905001915050908152602001604051809103902054815260200190815260200160002060040160405160200180828054600181600116156101000203166002900480156142405780601f1061421e576101008083540402835291820191614240565b820191906000526020600020905b81548152906001019060200180831161422c575b505091505060405160208183030381529060405280519060200120146142ce576040517f08c379a000000000000000000000000000000000000000000000000000000000815260040180806020018281038252600f8152602001807f656d61696c206e6f7420666f756e64000000000000000000000000000000000081525060200191505060405180910390fd5b816007600060088787604051808383808284378083019250505092505050908152602001604051809103902054815260200190815260200160002060030160006101000a81548160ff0219169083600481111561432757fe5b02179055507fec3f9e7c0ec802aac2f07f51ca8ed3fe3e71832bb9b25fa02699f1e133558b28848484604051808060200183600481111561436457fe5b60ff1681526020018281038252858582818152602001925080828437600081840152601f19601f82011690508083019250505094505050505060405180910390a150505050565b6143b3612083565b614425576040517f08c379a00000000000000000000000000000000000000000000000000000000081526004018080602001828103825260028152602001807f6c6c00000000000000000000000000000000000000000000000000000000000081525060200191505060405180910390fd5b61442e33614b38565b61443781614e70565b6144408161516b565b50565b60011515600560003373ffffffffffffffffffffffffffffffffffffffff1673ffffffffffffffffffffffffffffffffffffffff16815260200190815260200160002060000160009054906101000a900460ff161515146144ef576040517f08c379a000000000000000000000000000000000000000000000000000000000815260040180806020018281038252602c8152602001806154a1602c913960400191505060405180910390fd5b83838080601f016020809104026020016040519081016040528093929190818152602001838380828437600081840152601f19601f82011690508083019250505050505050600760006008836040518082805190602001908083835b6020831061456e578051825260208201915060208101905060208303925061454b565b6001836020036101000a038019825116818451168082178552505050505050905001915050908152602001604051809103902054815260200190815260200160002060030160039054906101000a900460ff16614633576040517f08c379a00000000000000000000000000000000000000000000000000000000081526004018080602001828103825260168152602001807f53747564656e7420646f65736e2774206578697374730000000000000000000081525060200191505060405180910390fd5b806040516020018082805190602001908083835b6020831061466a5780518252602082019150602081019050602083039250614647565b6001836020036101000a03801982511681845116808217855250505050505090500191505060405160208183030381529060405280519060200120600760006008846040518082805190602001908083835b602083106146df57805182526020820191506020810190506020830392506146bc565b6001836020036101000a038019825116818451168082178552505050505050905001915050908152602001604051809103902054815260200190815260200160002060040160405160200180828054600181600116156101000203166002900480156147825780601f10614760576101008083540402835291820191614782565b820191906000526020600020905b81548152906001019060200180831161476e575b50509150506040516020818303038152906040528051906020012014614810576040517f08c379a000000000000000000000000000000000000000000000000000000000815260040180806020018281038252600f8152602001807f656d61696c206e6f7420666f756e64000000000000000000000000000000000081525060200191505060405180910390fd5b600061485f84848080601f016020809104026020016040519081016040528093929190818152602001838380828437600081840152601f19601f8201169050808301925050505050505061511d565b90508060076000600889896040518083838082843780830192505050925050509081526020016040518091039020548152602001908152602001600020600201819055507f6c18c2323a2fff052ced450b832c70b902d963e748e582c37e9c78627259731586868360405180806020018381526020018281038252858582818152602001925080828437600081840152601f19601f82011690508083019250505094505050505060405180910390a1505050505050565b60008060011515831515141561492f576000905061499b565b60001515831515141561499a5761496660018560030160019054906101000a900461ffff1661ffff166151f190919063ffffffff16565b8460030160016101000a81548161ffff021916908361ffff1602179055508360030160019054906101000a900461ffff1690505b5b8091505092915050565b60608060206040519080825280601f01601f1916602001820160405280156149dc5781602001600182028038833980820191505090505b509050600080905060008090505b6020811015614a865760008160080260020a8660001c0260001b9050600060f81b817effffffffffffffffffffffffffffffffffffffffffffffffffffffffffffff191614614a785780848481518110614a4057fe5b60200101907effffffffffffffffffffffffffffffffffffffffffffffffffffffffffffff1916908160001a90535082806001019350505b5080806001019150506149ea565b506060816040519080825280601f01601f191660200182016040528015614abc5781602001600182028038833980820191505090505b50905060008090505b82811015614b2c57838181518110614ad957fe5b602001015160f81c60f81b828281518110614af057fe5b60200101907effffffffffffffffffffffffffffffffffffffffffffffffffffffffffffff1916908160001a9053508080600101915050614ac5565b50809350505050919050565b60016002541415614bb1576040517f08c379a00000000000000000000000000000000000000000000000000000000081526004018080602001828103825260158152602001807f61646d696e206d7573742062652070726573656e74000000000000000000000081525060200191505060405180910390fd5b6001600560008373ffffffffffffffffffffffffffffffffffffffff1673ffffffffffffffffffffffffffffffffffffffff16815260200190815260200160002060000160006101000a81548160ff021916908315150217905515614e6d576000600560008373ffffffffffffffffffffffffffffffffffffffff1673ffffffffffffffffffffffffffffffffffffffff168152602001908152602001600020600101549050600060066000600160025403815260200190815260200160002060009054906101000a900473ffffffffffffffffffffffffffffffffffffffff16905060066000600160025403815260200190815260200160002060009054906101000a900473ffffffffffffffffffffffffffffffffffffffff166006600084815260200190815260200160002060006101000a81548173ffffffffffffffffffffffffffffffffffffffff021916908373ffffffffffffffffffffffffffffffffffffffff16021790555081600560008373ffffffffffffffffffffffffffffffffffffffff1673ffffffffffffffffffffffffffffffffffffffff16815260200190815260200160002060010181905550600560008473ffffffffffffffffffffffffffffffffffffffff1673ffffffffffffffffffffffffffffffffffffffff168152602001908152602001600020600080820160006101000a81549060ff02191690556001820160009055505060066000600160025403815260200190815260200160002060006101000a81549073ffffffffffffffffffffffffffffffffffffffff0219169055614e14600160025461521590919063ffffffff16565b6002819055508273ffffffffffffffffffffffffffffffffffffffff167fa0726c73cf6ad18ddb855ba65d1ddd4d7fd37d320f4e52f6b154c13d386f5fd96002546040518082815260200191505060405180910390a250505b50565b60001515600560008373ffffffffffffffffffffffffffffffffffffffff1673ffffffffffffffffffffffffffffffffffffffff16815260200190815260200160002060000160009054906101000a900460ff1615151415614fe1576001600560008373ffffffffffffffffffffffffffffffffffffffff1673ffffffffffffffffffffffffffffffffffffffff16815260200190815260200160002060000160006101000a81548160ff021916908315150217905550600254600560008373ffffffffffffffffffffffffffffffffffffffff1673ffffffffffffffffffffffffffffffffffffffff168152602001908152602001600020600101819055508060066000600254815260200190815260200160002060006101000a81548173ffffffffffffffffffffffffffffffffffffffff021916908373ffffffffffffffffffffffffffffffffffffffff160217905550614fda600160025461514f90919063ffffffff16565b6002819055505b50565b614fec612083565b61505e576040517f08c379a00000000000000000000000000000000000000000000000000000000081526004018080602001828103825260028152602001807f6c6c00000000000000000000000000000000000000000000000000000000000081525060200191505060405180910390fd5b600073ffffffffffffffffffffffffffffffffffffffff166000809054906101000a900473ffffffffffffffffffffffffffffffffffffffff1673ffffffffffffffffffffffffffffffffffffffff167f8be0079c531659141344cd1fd0a4f28419497f9722a3daafe3b4186f6b6457e060405160405180910390a360008060006101000a81548173ffffffffffffffffffffffffffffffffffffffff021916908373ffffffffffffffffffffffffffffffffffffffff160217905550565b600060608290506060839050600082511415615140576000801b9250505061514a565b6020810151925050505b919050565b60008082840190508381101561516157fe5b8091505092915050565b615173612083565b6151e5576040517f08c379a00000000000000000000000000000000000000000000000000000000081526004018080602001828103825260028152602001807f6c6c00000000000000000000000000000000000000000000000000000000000081525060200191505060405180910390fd5b6151ee8161522c565b50565b60008082840190508361ffff168161ffff16101561520b57fe5b8091505092915050565b60008282111561522157fe5b818303905092915050565b600073ffffffffffffffffffffffffffffffffffffffff168173ffffffffffffffffffffffffffffffffffffffff16141561526657600080fd5b8073ffffffffffffffffffffffffffffffffffffffff166000809054906101000a900473ffffffffffffffffffffffffffffffffffffffff1673ffffffffffffffffffffffffffffffffffffffff167f8be0079c531659141344cd1fd0a4f28419497f9722a3daafe3b4186f6b6457e060405160405180910390a3806000806101000a81548173ffffffffffffffffffffffffffffffffffffffff021916908373ffffffffffffffffffffffffffffffffffffffff16021790555050565b828054600181600116156101000203166002900490600052602060002090601f016020900481019282601f1061536557805160ff1916838001178555615393565b82800160010185558215615393579182015b82811115615392578251825591602001919060010190615377565b5b5090506153a0919061547b565b5090565b6040518060e00160405280600080191681526020016000801916815260200160008019168152602001600060048111156153da57fe5b8152602001600061ffff168152602001600015158152602001606081525090565b828054600181600116156101000203166002900490600052602060002090601f016020900481019282601f1061543c57803560ff191683800117855561546a565b8280016001018555821561546a579182015b8281111561546957823582559160200191906001019061544e565b5b509050615477919061547b565b5090565b61549d91905b80821115615499576000816000905550600101615481565b5090565b9056fe4f6e6c792061646d696e7320697320616c6c6f77656420746f2063616c6c20746869732066756e6374696f6ea265627a7a7231582042b7824cd0cf41c04b70d59e761c6ecdf9943ab462b2641b2596135e6a6e1dbc64736f6c634300050c0032",
  "source": "pragma solidity >=0.4.22 <0.6.0;\r\nimport \"./Ownable.sol\";\r\nimport \"./SafeMath.sol\";\r\ncontract Cert is Ownable {\r\n    \r\n    using SafeMath for uint256;\r\n    using SafeMath16 for uint16;\r\n    \r\n    //EVENTS\r\n    \r\n    //Admin Related Events\r\n    \r\n    event AdminAdded(address indexed _addr, uint adminIndex);\r\n    event AdminRemoved(address indexed _addr, uint adminIndex);\r\n    event AdminLimitChanged(uint _newLimit);\r\n    \r\n    //Student Related Events\r\n    \r\n    event StudentAdded(string _email, bytes32 fName, bytes32 lName, bytes32 commd, grades _grade);\r\n    event StudentRemoved(string _email);\r\n    event StudentNameUpdated(string _email, bytes32 nFirstName, bytes32 nLastName);\r\n    event StudentCommendationUpdated(string _email, bytes32 nCommendation);\r\n    event StudentGradeUpdated(string  _email, grades _newgrade);\r\n    event StudentEmailUpdated(string _email, string _newEmail);\r\n    \r\n    //Assignment Related Events\r\n    \r\n    event AssignmentAdded(string _email, string _link, assignmentStatus _status, uint16 assignmentIndex);\r\n    event AssignmentUpdated(string _email, assignmentStatus _status, uint16 assignmentIndex);\r\n    event Donate(address _addr, uint _value);\r\n    event Donatee(address _addr, uint _value);\r\n    \r\n    //STATE VARIABLES\r\n    \r\n    //Initialising VARIABLES\r\n    \r\n    uint public maxAdmins = 0;\r\n    uint public adminIndex = 0;\r\n    uint public studentIndex = 0;\r\n    uint public totalWeiDonations = 0;\r\n    \r\n    // ENUMS\r\n    \r\n    // ENUMS FOR THE STUDENT GRADE\r\n    \r\n    enum  grades {Good, Great, Outstanding, Epic, Legendary}\r\n    \r\n    // ENUMS FOR THE ASSIGNMENT STATUS\r\n     \r\n    enum assignmentStatus {Inactive, Pending, Completed, Cancelled}\r\n    \r\n    \r\n    // STRUCTS\r\n    \r\n    // STRUCT FOR ADMINS\r\n    \r\n    struct Admin {\r\n         bool authorized;\r\n         uint id;\r\n    }\r\n     \r\n    // STRUCT FOR ASSIGNMENT\r\n    \r\n    struct Assignment {\r\n         string link;\r\n         assignmentStatus status;\r\n    }\r\n    \r\n    // STRUCT FOR STUDENT\r\n     \r\n    struct Student {\r\n         bytes32 firstName;\r\n         bytes32 lastName;\r\n         bytes32 commendation;\r\n         grades grade;\r\n         uint16 assignmentIndex;\r\n         bool active;\r\n         string email;\r\n        mapping (uint16 => Assignment) assignments;\r\n    }\r\n    \r\n    // MAPPINGS\r\n    \r\n    mapping (address => Admin) public admins;\r\n    mapping (uint => address) public adminsReverseMapping;\r\n    mapping (uint => Student) private students;\r\n    mapping (string => uint) private studentsReverseMapping;\r\n    \r\n    constructor () public {\r\n       maxAdmins = 2;\r\n       _addAdmin(msg.sender);\r\n        \r\n    }\r\n    \r\n    // MODIFIERS\r\n    \r\n    modifier onlyAdmins() {\r\n         require(admins[msg.sender].authorized == true, 'Only admins is allowed to call this function');\r\n         _;\r\n    }\r\n    \r\n    modifier onlyNonOwnerAdmins(address _addr) { \r\n        require(admins[_addr].authorized = true, \"Only admins allowed\");\r\n        require(_addr != owner(), \"Only non-owner admin\");\r\n        _;\r\n    }\r\n     \r\n    \r\n    modifier onlyPermissibleAdminLimit() {\r\n        require(adminIndex < maxAdmins, 'admins max reached');\r\n        _;\r\n    }\r\n    \r\n    modifier onlyNonExistentStudents(string memory _email) {\r\n         require(!students[studentsReverseMapping[_email]].active, \"Student already Exists\");\r\n      require(keccak256(abi.encodePacked(students[studentsReverseMapping[_email]].email)) != keccak256(abi.encodePacked( _email)), 'email already exist');\r\n        _;\r\n    }\r\n    \r\n    modifier onlyValidStudents(string memory _email) {\r\n         require(students[studentsReverseMapping[_email]].active, \"Student doesn't exists\");\r\n      require( keccak256(abi.encodePacked(students[studentsReverseMapping[_email]].email)) == keccak256(abi.encodePacked( _email)), 'email not found');\r\n        _;\r\n    }\r\n    \r\n   // FUNCTIONS\r\n   \r\n   // ADMIN RELATED FUNCTIONS\r\n    \r\n    function addAdmin(address _addr) external onlyOwner onlyPermissibleAdminLimit() {\r\n         _addAdmin(_addr);\r\n        emit AdminAdded( _addr, adminIndex);\r\n    }\r\n    function _addAdmin(address _addr) private {\r\n       if(admins[_addr].authorized == false) {\r\n        admins[_addr].authorized = true;    \r\n        admins[_addr].id = adminIndex;\r\n        adminsReverseMapping[adminIndex] = _addr;\r\n        adminIndex = adminIndex.add(1);\r\n      }\r\n    }\r\n    \r\n    function removeAdmin(address _addr) external onlyOwner onlyNonOwnerAdmins( _addr) {\r\n        _removeAdmin(_addr);\r\n        emit AdminRemoved(_addr, adminIndex);\r\n    }\r\n    \r\n    function _removeAdmin(address _addr) private  {\r\n        // Function will run even if the admin is not authorized, so a fake addres will also result in decreasing adminIndex\r\n        // run it inside the autorize conditional logic\r\n        // also, the function will run well for 2 admins but will be incorrect when the number increses\r\n        // since the last adminIndex is getting swapped with the second last admin index\r\n        // revisit this\r\n        \r\n        // Suggestable Logic :\r\n        \r\n        \r\n        if (adminIndex == 1) {\r\n            revert('admin must be present');\r\n        }\r\n        \r\n        if (admins[_addr].authorized = true) {\r\n            // get id of the admin to be deleted\r\n            uint swappableId = admins[_addr].id;\r\n            \r\n            // swap the admins info and update admins mapping\r\n            // get the last adminsReverseMapping address for swapping\r\n            address swappableAddress = adminsReverseMapping[adminIndex -1];\r\n            \r\n            // swap the adminsReverseMapping and then reduce admin index\r\n            adminsReverseMapping[swappableId] = adminsReverseMapping[adminIndex - 1];\r\n            \r\n            // also remap the admins id\r\n            admins[swappableAddress].id = swappableId;\r\n            \r\n            // delete and reduce admin index \r\n            delete(admins[_addr]);\r\n            delete(adminsReverseMapping[adminIndex - 1]);\r\n            adminIndex = adminIndex.sub(1);\r\n            \r\n            // Emit event\r\n            emit AdminRemoved(_addr, adminIndex);\r\n        }\r\n    }\r\n   \r\n    function changeAdminLimit (uint _newLimit) external  {\r\n        require(_newLimit >= 1 && _newLimit > adminIndex);\r\n        maxAdmins = _newLimit;\r\n        emit AdminLimitChanged( _newLimit);\r\n    }\r\n   \r\n    function transferOwnership (address _addr) onlyOwner public {\r\n        _removeAdmin(msg.sender);\r\n        _addAdmin(_addr);\r\n        super.transferOwnership(_addr);\r\n    }\r\n    \r\n    function renounceOwnership() public {\r\n        _removeAdmin(msg.sender);\r\n        super.renounceOwnership();\r\n    }\r\n    \r\n    // STUDENT RELATED FUNCTIONS\r\n    \r\n    function addStudent(string calldata _firstName, string calldata _lastName, string calldata _commendation, grades _grade, string calldata _email) external onlyAdmins onlyNonExistentStudents(_email)  {\r\n        bytes32 fName = stringToBytes32(_firstName);\r\n        bytes32 lName = stringToBytes32(_lastName);\r\n        bytes32 commd = stringToBytes32(_commendation);\r\n        \r\n        Student memory stud;\r\n        stud.assignmentIndex = 0;\r\n        stud.firstName = fName;\r\n        stud.lastName = lName;\r\n        stud.commendation = commd;\r\n        stud.grade = _grade;\r\n        stud.email = _email;\r\n        stud.active = true;\r\n        students[studentIndex] = stud;\r\n        \r\n        studentsReverseMapping[_email] = studentIndex;\r\n        studentIndex = studentIndex.add(1);\r\n        \r\n        emit StudentAdded(_email,fName, lName, commd, _grade);\r\n    }\r\n    \r\n    function searchStudent(string calldata _email) external view returns(string memory firstName, string memory lastName, string memory commendation, grades grade, uint16 assignmentIndex, bool active) {\r\n        return(\r\n            bytes32ToString(students[studentsReverseMapping[_email]].firstName),bytes32ToString(students[studentsReverseMapping[_email]].lastName),\r\n            bytes32ToString(students[studentsReverseMapping[_email]].commendation),students[studentsReverseMapping[_email]].grade,\r\n            students[studentsReverseMapping[_email]].assignmentIndex, students[studentsReverseMapping[_email]].active\r\n            );\r\n    }\r\n    \r\n    function removeStudent(string calldata _email) external  onlyAdmins onlyValidStudents(_email)  {\r\n      students[studentsReverseMapping[_email]].active = false;\r\n      emit StudentRemoved(_email);\r\n    }\r\n    \r\n    function changeStudentName(string calldata _email, string calldata _newFirstName, string calldata _newLastName) external onlyAdmins onlyValidStudents(_email) {\r\n        bytes32 nFirstName = stringToBytes32(_newFirstName);\r\n        bytes32 nLastName = stringToBytes32(_newLastName);\r\n        \r\n        students[studentsReverseMapping[_email]].firstName = nFirstName;\r\n        students[studentsReverseMapping[_email]].lastName = nLastName;\r\n        \r\n       emit StudentNameUpdated(_email, nFirstName, nLastName);\r\n    }\r\n    \r\n    function changeStudentCommendation(string calldata _email, string calldata _newCommendation) external onlyAdmins onlyValidStudents(_email) {\r\n       bytes32 nCommendation = stringToBytes32(_newCommendation);\r\n       \r\n       students[studentsReverseMapping[_email]].commendation = nCommendation;\r\n       emit StudentCommendationUpdated(_email, nCommendation);\r\n    }\r\n    \r\n    function changeStudentGrade(string calldata _email, grades _newgrade) external onlyAdmins onlyValidStudents(_email) {\r\n        students[studentsReverseMapping[_email]].grade = _newgrade;\r\n        emit StudentGradeUpdated( _email, _newgrade);\r\n    }\r\n    \r\n    function changeStudentEmail(string calldata _email, string calldata _newEmail) external onlyAdmins onlyValidStudents(_email) {\r\n        students[studentsReverseMapping[_email]].email = _newEmail;\r\n        emit StudentEmailUpdated(_email, _newEmail);\r\n    } \r\n    \r\n    // ASSIGNMENT RELATED FUNCTIONS\r\n    \r\n    // TO CHECK WHETHER IS FINAL PROJECT OR NOT\r\n    \r\n    function _calcAndFetchAssignmentIndex(Student storage scholar, bool isFinalProject) private  returns(uint16) {\r\n       uint16 assignmentIndex;\r\n        \r\n        if(isFinalProject == true) {\r\n          assignmentIndex = 0; \r\n        }\r\n        else if (isFinalProject == false) {\r\n          scholar.assignmentIndex = scholar.assignmentIndex.add(1);\r\n          assignmentIndex = scholar.assignmentIndex;\r\n        }\r\n        \r\n         \r\n        return assignmentIndex;\r\n    }\r\n    \r\n    function addAssignment(string calldata _email, string calldata _link, assignmentStatus _status, bool isFinalProject) external onlyAdmins onlyValidStudents(_email) {\r\n        uint16 assignmentIndex = _calcAndFetchAssignmentIndex(students[studentsReverseMapping[_email]], isFinalProject);\r\n        students[studentsReverseMapping[_email]].assignments[students[studentsReverseMapping[_email]].assignmentIndex] = Assignment(_link, _status);\r\n        \r\n        emit AssignmentAdded(_email, _link, _status, assignmentIndex);\r\n    }\r\n    \r\n    function updateAssignmentStatus(string calldata _email, assignmentStatus _status, bool isFinalProject) external onlyAdmins onlyValidStudents(_email) {\r\n      uint16 assignmentIndex = _calcAndFetchAssignmentIndex(students[studentsReverseMapping[_email]], isFinalProject);\r\n       students[studentsReverseMapping[_email]].assignments[students[studentsReverseMapping[_email]].assignmentIndex].status = _status;\r\n          \r\n        emit AssignmentUpdated(_email, _status, assignmentIndex);\r\n    }\r\n    \r\n    function getAssignmentInfo(string calldata _email, uint16 _assignmentIndex) view external onlyValidStudents(_email) returns(string memory link, assignmentStatus status ) {\r\n        require(students[studentsReverseMapping[_email]].assignmentIndex >= 0);\r\n        require(_assignmentIndex <= students[studentsReverseMapping[_email]].assignmentIndex, 'assignmentIndex above current Id');\r\n        return(students[studentsReverseMapping[_email]].assignments[_assignmentIndex].link, students[studentsReverseMapping[_email]].assignments[_assignmentIndex].status);\r\n    }\r\n   \r\n   //FALLBACK \r\n   \r\n    function () external payable {\r\n    }\r\n    \r\n    // DONATE ETHER TO THE CONTRACT\r\n    \r\n    function donateEth() external payable {\r\n      require(msg.value >= 0.005 ether);\r\n    emit Donate(address(this), msg.value);\r\n    }\r\n    \r\n    // WITHDRAW ETHER TO OWNER ADDRESS\r\n    \r\n    function withdrawEth() external payable onlyOwner {\r\n      address payable _owner = address(uint160(owner()));\r\n      uint bal = address(this).balance;\r\n      _owner.transfer(bal);\r\n      emit Donatee(msg.sender, bal);\r\n    }\r\n    \r\n    //HELPER FUNCTIONS\r\n    \r\n    //CONVERT BYTES32 TO STRING\r\n    \r\n      function bytes32ToString(bytes32 _x) \r\n    private pure \r\n    returns (string memory result) {\r\n        bytes memory bytesString = new bytes(32);\r\n        uint charCount = 0;\r\n        for (uint j = 0; j < 32; j++) {\r\n            byte char = byte(bytes32(uint(_x) * 2 ** (8 * j)));\r\n            if (char != 0) {\r\n                bytesString[charCount] = char;\r\n                charCount++;\r\n            }\r\n        }\r\n        bytes memory bytesStringTrimmed = new bytes(charCount);\r\n        for (uint j = 0; j < charCount; j++) {\r\n            bytesStringTrimmed[j] = bytesString[j];\r\n        }\r\n        \r\n        result = string(bytesStringTrimmed);\r\n    }\r\n    \r\n    // CONVERT STRING TO BYTES32\r\n    \r\n       function stringToBytes32(string memory _source) \r\n    private pure \r\n    returns (bytes32 result) {\r\n        bytes memory tempEmptyStringTest = bytes(_source);\r\n        string memory tempSource = _source;\r\n        \r\n        if (tempEmptyStringTest.length == 0) {\r\n            return 0x0;\r\n        }\r\n    \r\n        assembly {\r\n            result := mload(add(tempSource, 32))\r\n        }\r\n    }\r\n\r\n}\r\n\r\n\r\n\r\n\r\n\r\n\r\n\r\n\r\n\r\n",
  "sourcePath": "C:/Users/nwagb/Documents/aa/Certificate/Frontend/contracts/cert.sol",
  "compiler": {
    "name": "solc",
    "version": "0.5.12+commit.7709ece9.Emscripten.clang"
  },
  "schemaVersion": "3.0.19",
  "updatedAt": "2020-03-19T10:34:33.447Z",
  "devdoc": {
    "methods": {
      "isOwner()": {
        "return": "true if `msg.sender` is the owner of the contract."
      },
      "owner()": {
        "return": "the address of the owner."
      }
    }
  },
  "userdoc": {
    "methods": {}
  }
}