{
  "contractName": "Cert",
  "abi": [
    {
      "inputs": [],
      "payable": false,
      "stateMutability": "nonpayable",
      "type": "constructor"
    },
    {
      "anonymous": false,
      "inputs": [
        {
          "indexed": true,
          "internalType": "address",
          "name": "_addr",
          "type": "address"
        },
        {
          "indexed": false,
          "internalType": "uint256",
          "name": "adminIndex",
          "type": "uint256"
        }
      ],
      "name": "AdminAdded",
      "type": "event"
    },
    {
      "anonymous": false,
      "inputs": [
        {
          "indexed": false,
          "internalType": "uint256",
          "name": "_newLimit",
          "type": "uint256"
        }
      ],
      "name": "AdminLimitChanged",
      "type": "event"
    },
    {
      "anonymous": false,
      "inputs": [
        {
          "indexed": true,
          "internalType": "address",
          "name": "_addr",
          "type": "address"
        },
        {
          "indexed": false,
          "internalType": "uint256",
          "name": "adminIndex",
          "type": "uint256"
        }
      ],
      "name": "AdminRemoved",
      "type": "event"
    },
    {
      "anonymous": false,
      "inputs": [
        {
          "indexed": false,
          "internalType": "string",
          "name": "_email",
          "type": "string"
        },
        {
          "indexed": false,
          "internalType": "string",
          "name": "_link",
          "type": "string"
        },
        {
          "indexed": false,
          "internalType": "enum Cert.assignmentStatus",
          "name": "_status",
          "type": "uint8"
        },
        {
          "indexed": false,
          "internalType": "uint16",
          "name": "assignmentIndex",
          "type": "uint16"
        }
      ],
      "name": "AssignmentAdded",
      "type": "event"
    },
    {
      "anonymous": false,
      "inputs": [
        {
          "indexed": false,
          "internalType": "string",
          "name": "_email",
          "type": "string"
        },
        {
          "indexed": false,
          "internalType": "enum Cert.assignmentStatus",
          "name": "_status",
          "type": "uint8"
        },
        {
          "indexed": false,
          "internalType": "uint16",
          "name": "assignmentIndex",
          "type": "uint16"
        }
      ],
      "name": "AssignmentUpdated",
      "type": "event"
    },
    {
      "anonymous": false,
      "inputs": [
        {
          "indexed": false,
          "internalType": "address",
          "name": "_addr",
          "type": "address"
        },
        {
          "indexed": false,
          "internalType": "uint256",
          "name": "_value",
          "type": "uint256"
        }
      ],
      "name": "Donate",
      "type": "event"
    },
    {
      "anonymous": false,
      "inputs": [
        {
          "indexed": true,
          "internalType": "address",
          "name": "previousOwner",
          "type": "address"
        },
        {
          "indexed": true,
          "internalType": "address",
          "name": "newOwner",
          "type": "address"
        }
      ],
      "name": "OwnershipTransferred",
      "type": "event"
    },
    {
      "anonymous": false,
      "inputs": [
        {
          "indexed": false,
          "internalType": "string",
          "name": "_email",
          "type": "string"
        },
        {
          "indexed": false,
          "internalType": "bytes32",
          "name": "_firstName",
          "type": "bytes32"
        },
        {
          "indexed": false,
          "internalType": "bytes32",
          "name": "_lastName",
          "type": "bytes32"
        },
        {
          "indexed": false,
          "internalType": "bytes32",
          "name": "_commendation",
          "type": "bytes32"
        },
        {
          "indexed": false,
          "internalType": "enum Cert.grades",
          "name": "_grade",
          "type": "uint8"
        }
      ],
      "name": "StudentAdded",
      "type": "event"
    },
    {
      "anonymous": false,
      "inputs": [
        {
          "indexed": false,
          "internalType": "string",
          "name": "_email",
          "type": "string"
        },
        {
          "indexed": false,
          "internalType": "bytes32",
          "name": "_newCommendation",
          "type": "bytes32"
        }
      ],
      "name": "StudentCommendationUpdated",
      "type": "event"
    },
    {
      "anonymous": false,
      "inputs": [
        {
          "indexed": false,
          "internalType": "string",
          "name": "_email",
          "type": "string"
        },
        {
          "indexed": false,
          "internalType": "string",
          "name": "_newEmail",
          "type": "string"
        }
      ],
      "name": "StudentEmailUpdated",
      "type": "event"
    },
    {
      "anonymous": false,
      "inputs": [
        {
          "indexed": false,
          "internalType": "string",
          "name": "_email",
          "type": "string"
        },
        {
          "indexed": false,
          "internalType": "enum Cert.grades",
          "name": "_newgrade",
          "type": "uint8"
        }
      ],
      "name": "StudentGradeUpdated",
      "type": "event"
    },
    {
      "anonymous": false,
      "inputs": [
        {
          "indexed": false,
          "internalType": "string",
          "name": "_email",
          "type": "string"
        },
        {
          "indexed": false,
          "internalType": "bytes32",
          "name": "_newFirstName",
          "type": "bytes32"
        },
        {
          "indexed": false,
          "internalType": "bytes32",
          "name": "_newLastName",
          "type": "bytes32"
        }
      ],
      "name": "StudentNameUpdated",
      "type": "event"
    },
    {
      "anonymous": false,
      "inputs": [
        {
          "indexed": false,
          "internalType": "string",
          "name": "_email",
          "type": "string"
        }
      ],
      "name": "StudentRemoved",
      "type": "event"
    },
    {
      "payable": true,
      "stateMutability": "payable",
      "type": "fallback"
    },
    {
      "constant": true,
      "inputs": [],
      "name": "adminIndex",
      "outputs": [
        {
          "internalType": "uint256",
          "name": "",
          "type": "uint256"
        }
      ],
      "payable": false,
      "stateMutability": "view",
      "type": "function"
    },
    {
      "constant": true,
      "inputs": [
        {
          "internalType": "address",
          "name": "",
          "type": "address"
        }
      ],
      "name": "admins",
      "outputs": [
        {
          "internalType": "bool",
          "name": "authorized",
          "type": "bool"
        },
        {
          "internalType": "uint256",
          "name": "id",
          "type": "uint256"
        }
      ],
      "payable": false,
      "stateMutability": "view",
      "type": "function"
    },
    {
      "constant": true,
      "inputs": [
        {
          "internalType": "uint256",
          "name": "",
          "type": "uint256"
        }
      ],
      "name": "adminsReverseMapping",
      "outputs": [
        {
          "internalType": "address",
          "name": "",
          "type": "address"
        }
      ],
      "payable": false,
      "stateMutability": "view",
      "type": "function"
    },
    {
      "constant": true,
      "inputs": [],
      "name": "isOwner",
      "outputs": [
        {
          "internalType": "bool",
          "name": "",
          "type": "bool"
        }
      ],
      "payable": false,
      "stateMutability": "view",
      "type": "function"
    },
    {
      "constant": true,
      "inputs": [],
      "name": "maxAdmins",
      "outputs": [
        {
          "internalType": "uint256",
          "name": "",
          "type": "uint256"
        }
      ],
      "payable": false,
      "stateMutability": "view",
      "type": "function"
    },
    {
      "constant": true,
      "inputs": [],
      "name": "owner",
      "outputs": [
        {
          "internalType": "address",
          "name": "",
          "type": "address"
        }
      ],
      "payable": false,
      "stateMutability": "view",
      "type": "function"
    },
    {
      "constant": true,
      "inputs": [],
      "name": "studentIndex",
      "outputs": [
        {
          "internalType": "uint256",
          "name": "",
          "type": "uint256"
        }
      ],
      "payable": false,
      "stateMutability": "view",
      "type": "function"
    },
    {
      "constant": true,
      "inputs": [
        {
          "internalType": "uint256",
          "name": "",
          "type": "uint256"
        }
      ],
      "name": "students",
      "outputs": [
        {
          "internalType": "bytes32",
          "name": "firstName",
          "type": "bytes32"
        },
        {
          "internalType": "bytes32",
          "name": "lastName",
          "type": "bytes32"
        },
        {
          "internalType": "bytes32",
          "name": "commendation",
          "type": "bytes32"
        },
        {
          "internalType": "enum Cert.grades",
          "name": "grade",
          "type": "uint8"
        },
        {
          "internalType": "uint16",
          "name": "assignmentIndex",
          "type": "uint16"
        },
        {
          "internalType": "bool",
          "name": "active",
          "type": "bool"
        },
        {
          "internalType": "string",
          "name": "email",
          "type": "string"
        }
      ],
      "payable": false,
      "stateMutability": "view",
      "type": "function"
    },
    {
      "constant": false,
      "inputs": [
        {
          "internalType": "address",
          "name": "_addr",
          "type": "address"
        }
      ],
      "name": "addAdmin",
      "outputs": [],
      "payable": false,
      "stateMutability": "nonpayable",
      "type": "function"
    },
    {
      "constant": false,
      "inputs": [
        {
          "internalType": "address",
          "name": "_addr",
          "type": "address"
        }
      ],
      "name": "removeAdmin",
      "outputs": [],
      "payable": false,
      "stateMutability": "nonpayable",
      "type": "function"
    },
    {
      "constant": false,
      "inputs": [
        {
          "internalType": "uint256",
          "name": "_newLimit",
          "type": "uint256"
        }
      ],
      "name": "changeAdminLimit",
      "outputs": [],
      "payable": false,
      "stateMutability": "nonpayable",
      "type": "function"
    },
    {
      "constant": false,
      "inputs": [
        {
          "internalType": "address",
          "name": "_addr",
          "type": "address"
        }
      ],
      "name": "transferOwnership",
      "outputs": [],
      "payable": false,
      "stateMutability": "nonpayable",
      "type": "function"
    },
    {
      "constant": false,
      "inputs": [],
      "name": "renounceOwnership",
      "outputs": [],
      "payable": false,
      "stateMutability": "nonpayable",
      "type": "function"
    },
    {
      "constant": false,
      "inputs": [
        {
          "internalType": "bytes32",
          "name": "_firstName",
          "type": "bytes32"
        },
        {
          "internalType": "bytes32",
          "name": "_lastName",
          "type": "bytes32"
        },
        {
          "internalType": "bytes32",
          "name": "_commendation",
          "type": "bytes32"
        },
        {
          "internalType": "enum Cert.grades",
          "name": "_grade",
          "type": "uint8"
        },
        {
          "internalType": "string",
          "name": "_email",
          "type": "string"
        }
      ],
      "name": "addStudent",
      "outputs": [],
      "payable": false,
      "stateMutability": "nonpayable",
      "type": "function"
    },
    {
      "constant": false,
      "inputs": [
        {
          "internalType": "string",
          "name": "_email",
          "type": "string"
        }
      ],
      "name": "removeStudent",
      "outputs": [],
      "payable": false,
      "stateMutability": "nonpayable",
      "type": "function"
    },
    {
      "constant": false,
      "inputs": [
        {
          "internalType": "string",
          "name": "_email",
          "type": "string"
        },
        {
          "internalType": "bytes32",
          "name": "_newFirstName",
          "type": "bytes32"
        },
        {
          "internalType": "bytes32",
          "name": "_newLastName",
          "type": "bytes32"
        }
      ],
      "name": "changeStudentName",
      "outputs": [],
      "payable": false,
      "stateMutability": "nonpayable",
      "type": "function"
    },
    {
      "constant": false,
      "inputs": [
        {
          "internalType": "string",
          "name": "_email",
          "type": "string"
        },
        {
          "internalType": "bytes32",
          "name": "_newCommendation",
          "type": "bytes32"
        }
      ],
      "name": "changeStudentCommendation",
      "outputs": [],
      "payable": false,
      "stateMutability": "nonpayable",
      "type": "function"
    },
    {
      "constant": false,
      "inputs": [
        {
          "internalType": "string",
          "name": "_email",
          "type": "string"
        },
        {
          "internalType": "enum Cert.grades",
          "name": "_newgrade",
          "type": "uint8"
        }
      ],
      "name": "changeStudentGrade",
      "outputs": [],
      "payable": false,
      "stateMutability": "nonpayable",
      "type": "function"
    },
    {
      "constant": false,
      "inputs": [
        {
          "internalType": "string",
          "name": "_email",
          "type": "string"
        },
        {
          "internalType": "string",
          "name": "_newEmail",
          "type": "string"
        }
      ],
      "name": "changeStudentEmail",
      "outputs": [],
      "payable": false,
      "stateMutability": "nonpayable",
      "type": "function"
    },
    {
      "constant": false,
      "inputs": [
        {
          "internalType": "string",
          "name": "_email",
          "type": "string"
        },
        {
          "internalType": "string",
          "name": "_link",
          "type": "string"
        },
        {
          "internalType": "enum Cert.assignmentStatus",
          "name": "_status",
          "type": "uint8"
        },
        {
          "internalType": "bool",
          "name": "isFinalProject",
          "type": "bool"
        }
      ],
      "name": "addAssignment",
      "outputs": [],
      "payable": false,
      "stateMutability": "nonpayable",
      "type": "function"
    },
    {
      "constant": false,
      "inputs": [
        {
          "internalType": "string",
          "name": "_email",
          "type": "string"
        },
        {
          "internalType": "enum Cert.assignmentStatus",
          "name": "_status",
          "type": "uint8"
        },
        {
          "internalType": "bool",
          "name": "isFinalProject",
          "type": "bool"
        }
      ],
      "name": "updateAssignmentStatus",
      "outputs": [],
      "payable": false,
      "stateMutability": "nonpayable",
      "type": "function"
    },
    {
      "constant": true,
      "inputs": [
        {
          "internalType": "string",
          "name": "_email",
          "type": "string"
        },
        {
          "internalType": "uint16",
          "name": "_assignmentIndex",
          "type": "uint16"
        }
      ],
      "name": "getAssignmentInfo",
      "outputs": [
        {
          "internalType": "string",
          "name": "link",
          "type": "string"
        },
        {
          "internalType": "enum Cert.assignmentStatus",
          "name": "status",
          "type": "uint8"
        }
      ],
      "payable": false,
      "stateMutability": "view",
      "type": "function"
    },
    {
      "constant": false,
      "inputs": [
        {
          "internalType": "uint256",
          "name": "_amount",
          "type": "uint256"
        }
      ],
      "name": "donateEth",
      "outputs": [],
      "payable": true,
      "stateMutability": "payable",
      "type": "function"
    },
    {
      "constant": false,
      "inputs": [],
      "name": "withdrawEth",
      "outputs": [],
      "payable": true,
      "stateMutability": "payable",
      "type": "function"
    },
    {
      "constant": true,
      "inputs": [
        {
          "internalType": "address",
          "name": "_addr",
          "type": "address"
        }
      ],
      "name": "ownBal",
      "outputs": [
        {
          "internalType": "uint256",
          "name": "",
          "type": "uint256"
        }
      ],
      "payable": false,
      "stateMutability": "view",
      "type": "function"
    }
  ],
  "bytecode": "0x60806040526000600155600060025560006003553480156200002057600080fd5b50336000806101000a81548173ffffffffffffffffffffffffffffffffffffffff021916908373ffffffffffffffffffffffffffffffffffffffff1602179055506000809054906101000a900473ffffffffffffffffffffffffffffffffffffffff1673ffffffffffffffffffffffffffffffffffffffff16600073ffffffffffffffffffffffffffffffffffffffff167f8be0079c531659141344cd1fd0a4f28419497f9722a3daafe3b4186f6b6457e060405160405180910390a36002600181905550620000f633620000fc60201b60201c565b6200029b565b60011515600460008373ffffffffffffffffffffffffffffffffffffffff1673ffffffffffffffffffffffffffffffffffffffff16815260200190815260200160002060000160009054906101000a900460ff16151514156200015f57620001bb565b6001600460008373ffffffffffffffffffffffffffffffffffffffff1673ffffffffffffffffffffffffffffffffffffffff16815260200190815260200160002060000160006101000a81548160ff0219169083151502179055505b600254600460008373ffffffffffffffffffffffffffffffffffffffff1673ffffffffffffffffffffffffffffffffffffffff168152602001908152602001600020600101819055508060056000600254815260200190815260200160002060006101000a81548173ffffffffffffffffffffffffffffffffffffffff021916908373ffffffffffffffffffffffffffffffffffffffff1602179055506200027560016002546200027e60201b620044d31790919060201c565b60028190555050565b6000808284019050838110156200029157fe5b8091505092915050565b614b3780620002ab6000396000f3fe6080604052600436106101665760003560e01c8063800d3c1a116100d1578063a0ef91df1161008a578063ea924d5a11610064578063ea924d5a14610d3b578063edd6cfb114610da0578063f27de6db14610e68578063f2fde38b14610f3d57610166565b8063a0ef91df14610b00578063a695431114610b0a578063dc63c3e914610bdc57610166565b8063800d3c1a146106975780638702f2ac146107735780638da5cb5b1461079e5780638f32d59b146107f5578063916e0b7d146108245780639bada3261461099c57610166565b806334839ea91161012357806334839ea914610426578063429b62e5146104515780634ca3ec51146104c157806370480275146105b4578063715018a6146106055780637a8ec57a1461061c57610166565b80630334982e1461016857806306ead22e14610249578063151b151c14610341578063170edcd61461036c5780631785f53c146103a75780631ce601d5146103f8575b005b34801561017457600080fd5b506102476004803603606081101561018b57600080fd5b81019080803590602001906401000000008111156101a857600080fd5b8201836020820111156101ba57600080fd5b803590602001918460018302840111640100000000831117156101dc57600080fd5b91908080601f016020809104026020016040519081016040528093929190818152602001838380828437600081840152601f19601f820116905080830192505050505050509192919290803560ff169060200190929190803515159060200190929190505050610f8e565b005b34801561025557600080fd5b506102826004803603602081101561026c57600080fd5b8101908080359060200190929190505050611542565b604051808881526020018781526020018681526020018560048111156102a457fe5b60ff1681526020018461ffff1661ffff1681526020018315151515815260200180602001828103825283818151815260200191508051906020019080838360005b838110156103005780820151818401526020810190506102e5565b50505050905090810190601f16801561032d5780820380516001836020036101000a031916815260200191505b509850505050505050505060405180910390f35b34801561034d57600080fd5b50610356611644565b6040518082815260200191505060405180910390f35b34801561037857600080fd5b506103a56004803603602081101561038f57600080fd5b810190808035906020019092919050505061164a565b005b3480156103b357600080fd5b506103f6600480360360208110156103ca57600080fd5b81019080803573ffffffffffffffffffffffffffffffffffffffff1690602001909291905050506116a5565b005b6104246004803603602081101561040e57600080fd5b81019080803590602001909291905050506117b4565b005b34801561043257600080fd5b5061043b611880565b6040518082815260200191505060405180910390f35b34801561045d57600080fd5b506104a06004803603602081101561047457600080fd5b81019080803573ffffffffffffffffffffffffffffffffffffffff169060200190929190505050611886565b60405180831515151581526020018281526020019250505060405180910390f35b3480156104cd57600080fd5b506105b2600480360360a08110156104e457600080fd5b81019080803590602001909291908035906020019092919080359060200190929190803560ff1690602001909291908035906020019064010000000081111561052c57600080fd5b82018360208201111561053e57600080fd5b8035906020019184600183028401116401000000008311171561056057600080fd5b91908080601f016020809104026020016040519081016040528093929190818152602001838380828437600081840152601f19601f8201169050808301925050505050505091929192905050506118b7565b005b3480156105c057600080fd5b50610603600480360360208110156105d757600080fd5b81019080803573ffffffffffffffffffffffffffffffffffffffff169060200190929190505050611dd8565b005b34801561061157600080fd5b5061061a611f27565b005b34801561062857600080fd5b506106556004803603602081101561063f57600080fd5b8101908080359060200190929190505050611f3a565b604051808273ffffffffffffffffffffffffffffffffffffffff1673ffffffffffffffffffffffffffffffffffffffff16815260200191505060405180910390f35b3480156106a357600080fd5b50610771600480360360608110156106ba57600080fd5b81019080803590602001906401000000008111156106d757600080fd5b8201836020820111156106e957600080fd5b8035906020019184600183028401116401000000008311171561070b57600080fd5b91908080601f016020809104026020016040519081016040528093929190818152602001838380828437600081840152601f19601f8201169050808301925050505050505091929192908035906020019092919080359060200190929190505050611f6d565b005b34801561077f57600080fd5b506107886123b1565b6040518082815260200191505060405180910390f35b3480156107aa57600080fd5b506107b36123b7565b604051808273ffffffffffffffffffffffffffffffffffffffff1673ffffffffffffffffffffffffffffffffffffffff16815260200191505060405180910390f35b34801561080157600080fd5b5061080a6123e0565b604051808215151515815260200191505060405180910390f35b34801561083057600080fd5b5061099a6004803603608081101561084757600080fd5b810190808035906020019064010000000081111561086457600080fd5b82018360208201111561087657600080fd5b8035906020019184600183028401116401000000008311171561089857600080fd5b91908080601f016020809104026020016040519081016040528093929190818152602001838380828437600081840152601f19601f820116905080830192505050505050509192919290803590602001906401000000008111156108fb57600080fd5b82018360208201111561090d57600080fd5b8035906020019184600183028401116401000000008311171561092f57600080fd5b91908080601f016020809104026020016040519081016040528093929190818152602001838380828437600081840152601f19601f820116905080830192505050505050509192919290803560ff169060200190929190803515159060200190929190505050612437565b005b3480156109a857600080fd5b50610a70600480360360408110156109bf57600080fd5b81019080803590602001906401000000008111156109dc57600080fd5b8201836020820111156109ee57600080fd5b80359060200191846001830284011164010000000083111715610a1057600080fd5b91908080601f016020809104026020016040519081016040528093929190818152602001838380828437600081840152601f19601f820116905080830192505050505050509192919290803561ffff169060200190929190505050612a9e565b6040518080602001836003811115610a8457fe5b60ff168152602001828103825284818151815260200191508051906020019080838360005b83811015610ac4578082015181840152602081019050610aa9565b50505050905090810190601f168015610af15780820380516001836020036101000a031916815260200191505b50935050505060405180910390f35b610b08613016565b005b348015610b1657600080fd5b50610bda60048036036040811015610b2d57600080fd5b8101908080359060200190640100000000811115610b4a57600080fd5b820183602082011115610b5c57600080fd5b80359060200191846001830284011164010000000083111715610b7e57600080fd5b91908080601f016020809104026020016040519081016040528093929190818152602001838380828437600081840152601f19601f8201169050808301925050505050505091929192908035906020019092919050505061316e565b005b348015610be857600080fd5b50610d3960048036036040811015610bff57600080fd5b8101908080359060200190640100000000811115610c1c57600080fd5b820183602082011115610c2e57600080fd5b80359060200191846001830284011164010000000083111715610c5057600080fd5b91908080601f016020809104026020016040519081016040528093929190818152602001838380828437600081840152601f19601f82011690508083019250505050505050919291929080359060200190640100000000811115610cb357600080fd5b820183602082011115610cc557600080fd5b80359060200191846001830284011164010000000083111715610ce757600080fd5b91908080601f016020809104026020016040519081016040528093929190818152602001838380828437600081840152601f19601f820116905080830192505050505050509192919290505050613525565b005b348015610d4757600080fd5b50610d8a60048036036020811015610d5e57600080fd5b81019080803573ffffffffffffffffffffffffffffffffffffffff169060200190929190505050613951565b6040518082815260200191505060405180910390f35b348015610dac57600080fd5b50610e6660048036036020811015610dc357600080fd5b8101908080359060200190640100000000811115610de057600080fd5b820183602082011115610df257600080fd5b80359060200191846001830284011164010000000083111715610e1457600080fd5b91908080601f016020809104026020016040519081016040528093929190818152602001838380828437600081840152601f19601f820116905080830192505050505050509192919290505050613972565b005b348015610e7457600080fd5b50610f3b60048036036040811015610e8b57600080fd5b8101908080359060200190640100000000811115610ea857600080fd5b820183602082011115610eba57600080fd5b80359060200191846001830284011164010000000083111715610edc57600080fd5b91908080601f016020809104026020016040519081016040528093929190818152602001838380828437600081840152601f19601f820116905080830192505050505050509192919290803560ff169060200190929190505050613d34565b005b348015610f4957600080fd5b50610f8c60048036036020811015610f6057600080fd5b81019080803573ffffffffffffffffffffffffffffffffffffffff169060200190929190505050614115565b005b60011515600460003373ffffffffffffffffffffffffffffffffffffffff1673ffffffffffffffffffffffffffffffffffffffff16815260200190815260200160002060000160009054906101000a900460ff1615151461103a576040517f08c379a000000000000000000000000000000000000000000000000000000000815260040180806020018281038252602c815260200180614ad7602c913960400191505060405180910390fd5b82806040516020018082805190602001908083835b60208310611072578051825260208201915060208101905060208303925061104f565b6001836020036101000a03801982511681845116808217855250505050505090500191505060405160208183030381529060405280519060200120600660006007846040518082805190602001908083835b602083106110e757805182526020820191506020810190506020830392506110c4565b6001836020036101000a0380198251168184511680821785525050505050509050019150509081526020016040518091039020548152602001908152602001600020600401604051602001808280546001816001161561010002031660029004801561118a5780601f1061116857610100808354040283529182019161118a565b820191906000526020600020905b815481529060010190602001808311611176575b50509150506040516020818303038152906040528051906020012014611218576040517f08c379a000000000000000000000000000000000000000000000000000000000815260040180806020018281038252600f8152602001807f656d61696c206e6f7420666f756e64000000000000000000000000000000000081525060200191505060405180910390fd5b61129d600660006007876040518082805190602001908083835b602083106112555780518252602082019150602081019050602083039250611232565b6001836020036101000a038019825116818451168082178552505050505050905001915050908152602001604051809103902054815260200190815260200160002083614133565b5082600660006007876040518082805190602001908083835b602083106112d957805182526020820191506020810190506020830392506112b6565b6001836020036101000a03801982511681845116808217855250505050505090500191505090815260200160405180910390205481526020019081526020016000206005016000600660006007896040518082805190602001908083835b6020831061135a5780518252602082019150602081019050602083039250611337565b6001836020036101000a038019825116818451168082178552505050505050905001915050908152602001604051809103902054815260200190815260200160002060030160019054906101000a900461ffff1661ffff1661ffff16815260200190815260200160002060010160006101000a81548160ff021916908360038111156113e257fe5b02179055506000600660006007876040518082805190602001908083835b602083106114235780518252602082019150602081019050602083039250611400565b6001836020036101000a038019825116818451168082178552505050505050905001915050908152602001604051809103902054815260200190815260200160002060030160019054906101000a900461ffff1690507ffe5c758159ba89815da51c135047816cabe749c00319c6d5c065719e3b99df7785858360405180806020018460038111156114b157fe5b60ff1681526020018361ffff1661ffff168152602001828103825285818151815260200191508051906020019080838360005b838110156114ff5780820151818401526020810190506114e4565b50505050905090810190601f16801561152c5780820380516001836020036101000a031916815260200191505b5094505050505060405180910390a15050505050565b60066020528060005260406000206000915090508060000154908060010154908060020154908060030160009054906101000a900460ff16908060030160019054906101000a900461ffff16908060030160039054906101000a900460ff1690806004018054600181600116156101000203166002900480601f01602080910402602001604051908101604052809291908181526020018280546001816001161561010002031660029004801561163a5780601f1061160f5761010080835404028352916020019161163a565b820191906000526020600020905b81548152906001019060200180831161161d57829003601f168201915b5050505050905087565b60035481565b60018111801561165b575060025481115b61166457600080fd5b806001819055507f212055f063d32bdb436074d026740d08858784553298d7651fa97fa6a3ea4297816040518082815260200191505060405180910390a150565b6116ad6123e0565b61171f576040517f08c379a00000000000000000000000000000000000000000000000000000000081526004018080602001828103825260028152602001807f6c6c00000000000000000000000000000000000000000000000000000000000081525060200191505060405180910390fd5b3373ffffffffffffffffffffffffffffffffffffffff168173ffffffffffffffffffffffffffffffffffffffff16141561175857600080fd5b611761816141c2565b8073ffffffffffffffffffffffffffffffffffffffff167fa0726c73cf6ad18ddb855ba65d1ddd4d7fd37d320f4e52f6b154c13d386f5fd96002546040518082815260200191505060405180910390a250565b6611c37937e080008110156117c857600080fd5b3490503073ffffffffffffffffffffffffffffffffffffffff166108fc349081150290604051600060405180830381858888f19350505050158015611811573d6000803e3d6000fd5b507f0553260a2e46b0577270d8992db02d30856ca880144c72d6e9503760946aef133034604051808373ffffffffffffffffffffffffffffffffffffffff1673ffffffffffffffffffffffffffffffffffffffff1681526020018281526020019250505060405180910390a150565b60015481565b60046020528060005260406000206000915090508060000160009054906101000a900460ff16908060010154905082565b60011515600460003373ffffffffffffffffffffffffffffffffffffffff1673ffffffffffffffffffffffffffffffffffffffff16815260200190815260200160002060000160009054906101000a900460ff16151514611963576040517f08c379a000000000000000000000000000000000000000000000000000000000815260040180806020018281038252602c815260200180614ad7602c913960400191505060405180910390fd5b80806040516020018082805190602001908083835b6020831061199b5780518252602082019150602081019050602083039250611978565b6001836020036101000a03801982511681845116808217855250505050505090500191505060405160208183030381529060405280519060200120600660006007846040518082805190602001908083835b60208310611a1057805182526020820191506020810190506020830392506119ed565b6001836020036101000a03801982511681845116808217855250505050505090500191505090815260200160405180910390205481526020019081526020016000206004016040516020018082805460018160011615610100020316600290048015611ab35780601f10611a91576101008083540402835291820191611ab3565b820191906000526020600020905b815481529060010190602001808311611a9f575b5050915050604051602081830303815290604052805190602001201415611b42576040517f08c379a00000000000000000000000000000000000000000000000000000000081526004018080602001828103825260138152602001807f656d61696c20616c72656164792065786973740000000000000000000000000081525060200191505060405180910390fd5b611b4a61495a565b6000816080019061ffff16908161ffff16815250508681600001818152505085816020018181525050848160400181815250508381606001906004811115611b8e57fe5b90816004811115611b9b57fe5b81525050828160c0018190525060018160a00190151590811515815250508060066000600354815260200190815260200160002060008201518160000155602082015181600101556040820151816002015560608201518160030160006101000a81548160ff02191690836004811115611c1157fe5b021790555060808201518160030160016101000a81548161ffff021916908361ffff16021790555060a08201518160030160036101000a81548160ff02191690831515021790555060c0820151816004019080519060200190611c759291906149b1565b509050506003546007846040518082805190602001908083835b60208310611cb25780518252602082019150602081019050602083039250611c8f565b6001836020036101000a038019825116818451168082178552505050505050905001915050908152602001604051809103902081905550611cff60016003546144d390919063ffffffff16565b6003819055507f32d5b6c08ec29a5181d1963863d515c8e55d50cefb169a5dfca8d4bf991abd3083888888886040518080602001868152602001858152602001848152602001836004811115611d5157fe5b60ff168152602001828103825287818151815260200191508051906020019080838360005b83811015611d91578082015181840152602081019050611d76565b50505050905090810190601f168015611dbe5780820380516001836020036101000a031916815260200191505b50965050505050505060405180910390a150505050505050565b611de06123e0565b611e52576040517f08c379a00000000000000000000000000000000000000000000000000000000081526004018080602001828103825260028152602001807f6c6c00000000000000000000000000000000000000000000000000000000000081525060200191505060405180910390fd5b60015460025410611ecb576040517f08c379a00000000000000000000000000000000000000000000000000000000081526004018080602001828103825260128152602001807f61646d696e73206d61782072656163686564000000000000000000000000000081525060200191505060405180910390fd5b611ed4816144ef565b8073ffffffffffffffffffffffffffffffffffffffff167f723c2b747529ca7f5eb53a74808f4a8b9bf264f0fc450fd904900151da74548a6002546040518082815260200191505060405180910390a250565b611f30336141c2565b611f38614668565b565b60056020528060005260406000206000915054906101000a900473ffffffffffffffffffffffffffffffffffffffff1681565b60011515600460003373ffffffffffffffffffffffffffffffffffffffff1673ffffffffffffffffffffffffffffffffffffffff16815260200190815260200160002060000160009054906101000a900460ff16151514612019576040517f08c379a000000000000000000000000000000000000000000000000000000000815260040180806020018281038252602c815260200180614ad7602c913960400191505060405180910390fd5b82806040516020018082805190602001908083835b60208310612051578051825260208201915060208101905060208303925061202e565b6001836020036101000a03801982511681845116808217855250505050505090500191505060405160208183030381529060405280519060200120600660006007846040518082805190602001908083835b602083106120c657805182526020820191506020810190506020830392506120a3565b6001836020036101000a038019825116818451168082178552505050505050905001915050908152602001604051809103902054815260200190815260200160002060040160405160200180828054600181600116156101000203166002900480156121695780601f10612147576101008083540402835291820191612169565b820191906000526020600020905b815481529060010190602001808311612155575b505091505060405160208183030381529060405280519060200120146121f7576040517f08c379a000000000000000000000000000000000000000000000000000000000815260040180806020018281038252600f8152602001807f656d61696c206e6f7420666f756e64000000000000000000000000000000000081525060200191505060405180910390fd5b82600660006007876040518082805190602001908083835b60208310612232578051825260208201915060208101905060208303925061220f565b6001836020036101000a03801982511681845116808217855250505050505090500191505090815260200160405180910390205481526020019081526020016000206000018190555081600660006007876040518082805190602001908083835b602083106122b65780518252602082019150602081019050602083039250612293565b6001836020036101000a0380198251168184511680821785525050505050509050019150509081526020016040518091039020548152602001908152602001600020600101819055507fa619a98d51afdd43275f5f41dbbbbc6634a6ce2c93ee920b48ac1e7983a160f28484846040518080602001848152602001838152602001828103825285818151815260200191508051906020019080838360005b8381101561236f578082015181840152602081019050612354565b50505050905090810190601f16801561239c5780820380516001836020036101000a031916815260200191505b5094505050505060405180910390a150505050565b60025481565b60008060009054906101000a900473ffffffffffffffffffffffffffffffffffffffff16905090565b60008060009054906101000a900473ffffffffffffffffffffffffffffffffffffffff1673ffffffffffffffffffffffffffffffffffffffff163373ffffffffffffffffffffffffffffffffffffffff1614905090565b60011515600460003373ffffffffffffffffffffffffffffffffffffffff1673ffffffffffffffffffffffffffffffffffffffff16815260200190815260200160002060000160009054906101000a900460ff161515146124e3576040517f08c379a000000000000000000000000000000000000000000000000000000000815260040180806020018281038252602c815260200180614ad7602c913960400191505060405180910390fd5b83806040516020018082805190602001908083835b6020831061251b57805182526020820191506020810190506020830392506124f8565b6001836020036101000a03801982511681845116808217855250505050505090500191505060405160208183030381529060405280519060200120600660006007846040518082805190602001908083835b60208310612590578051825260208201915060208101905060208303925061256d565b6001836020036101000a038019825116818451168082178552505050505050905001915050908152602001604051809103902054815260200190815260200160002060040160405160200180828054600181600116156101000203166002900480156126335780601f10612611576101008083540402835291820191612633565b820191906000526020600020905b81548152906001019060200180831161261f575b505091505060405160208183030381529060405280519060200120146126c1576040517f08c379a000000000000000000000000000000000000000000000000000000000815260040180806020018281038252600f8152602001807f656d61696c206e6f7420666f756e64000000000000000000000000000000000081525060200191505060405180910390fd5b612746600660006007886040518082805190602001908083835b602083106126fe57805182526020820191506020810190506020830392506126db565b6001836020036101000a038019825116818451168082178552505050505050905001915050908152602001604051809103902054815260200190815260200160002083614133565b50604051806040016040528085815260200184600381111561276457fe5b815250600660006007886040518082805190602001908083835b602083106127a1578051825260208201915060208101905060208303925061277e565b6001836020036101000a038019825116818451168082178552505050505050905001915050908152602001604051809103902054815260200190815260200160002060050160006006600060078a6040518082805190602001908083835b6020831061282257805182526020820191506020810190506020830392506127ff565b6001836020036101000a038019825116818451168082178552505050505050905001915050908152602001604051809103902054815260200190815260200160002060030160019054906101000a900461ffff1661ffff1661ffff16815260200190815260200160002060008201518160000190805190602001906128a89291906149b1565b5060208201518160010160006101000a81548160ff021916908360038111156128cd57fe5b02179055509050506000600660006007886040518082805190602001908083835b6020831061291157805182526020820191506020810190506020830392506128ee565b6001836020036101000a038019825116818451168082178552505050505050905001915050908152602001604051809103902054815260200190815260200160002060030160019054906101000a900461ffff1690507f3288fc53eb1edec731cf67ba3821396b62c0283ffacb2610481cd3fb43f86aeb868686846040518080602001806020018560038111156129a457fe5b60ff1681526020018461ffff1661ffff168152602001838103835287818151815260200191508051906020019080838360005b838110156129f25780820151818401526020810190506129d7565b50505050905090810190601f168015612a1f5780820380516001836020036101000a031916815260200191505b50838103825286818151815260200191508051906020019080838360005b83811015612a58578082015181840152602081019050612a3d565b50505050905090810190601f168015612a855780820380516001836020036101000a031916815260200191505b50965050505050505060405180910390a1505050505050565b6060600083806040516020018082805190602001908083835b60208310612ada5780518252602082019150602081019050602083039250612ab7565b6001836020036101000a03801982511681845116808217855250505050505090500191505060405160208183030381529060405280519060200120600660006007846040518082805190602001908083835b60208310612b4f5780518252602082019150602081019050602083039250612b2c565b6001836020036101000a03801982511681845116808217855250505050505090500191505090815260200160405180910390205481526020019081526020016000206004016040516020018082805460018160011615610100020316600290048015612bf25780601f10612bd0576101008083540402835291820191612bf2565b820191906000526020600020905b815481529060010190602001808311612bde575b50509150506040516020818303038152906040528051906020012014612c80576040517f08c379a000000000000000000000000000000000000000000000000000000000815260040180806020018281038252600f8152602001807f656d61696c206e6f7420666f756e64000000000000000000000000000000000081525060200191505060405180910390fd5b6000600660006007886040518082805190602001908083835b60208310612cbc5780518252602082019150602081019050602083039250612c99565b6001836020036101000a038019825116818451168082178552505050505050905001915050908152602001604051809103902054815260200190815260200160002060030160019054906101000a900461ffff1661ffff161015612d1f57600080fd5b8361ffff16600660006007886040518082805190602001908083835b60208310612d5e5780518252602082019150602081019050602083039250612d3b565b6001836020036101000a038019825116818451168082178552505050505050905001915050908152602001604051809103902054815260200190815260200160002060030160019054906101000a900461ffff1661ffff161015612e2a576040517f08c379a00000000000000000000000000000000000000000000000000000000081526004018080602001828103825260208152602001807f61737369676e6d656e74496e6465782061626f76652063757272656e7420496481525060200191505060405180910390fd5b600660006007876040518082805190602001908083835b60208310612e645780518252602082019150602081019050602083039250612e41565b6001836020036101000a038019825116818451168082178552505050505050905001915050908152602001604051809103902054815260200190815260200160002060050160008561ffff1661ffff168152602001908152602001600020600001600660006007886040518082805190602001908083835b60208310612eff5780518252602082019150602081019050602083039250612edc565b6001836020036101000a038019825116818451168082178552505050505050905001915050908152602001604051809103902054815260200190815260200160002060050160008661ffff1661ffff16815260200190815260200160002060010160009054906101000a900460ff16818054600181600116156101000203166002900480601f0160208091040260200160405190810160405280929190818152602001828054600181600116156101000203166002900480156130035780601f10612fd857610100808354040283529160200191613003565b820191906000526020600020905b815481529060010190602001808311612fe657829003601f168201915b5050505050915092509250509250929050565b61301e6123e0565b613090576040517f08c379a00000000000000000000000000000000000000000000000000000000081526004018080602001828103825260028152602001807f6c6c00000000000000000000000000000000000000000000000000000000000081525060200191505060405180910390fd5b600061309a6123b7565b905060003073ffffffffffffffffffffffffffffffffffffffff163190508173ffffffffffffffffffffffffffffffffffffffff166108fc829081150290604051600060405180830381858888f193505050501580156130fe573d6000803e3d6000fd5b507f0553260a2e46b0577270d8992db02d30856ca880144c72d6e9503760946aef133382604051808373ffffffffffffffffffffffffffffffffffffffff1673ffffffffffffffffffffffffffffffffffffffff1681526020018281526020019250505060405180910390a15050565b60011515600460003373ffffffffffffffffffffffffffffffffffffffff1673ffffffffffffffffffffffffffffffffffffffff16815260200190815260200160002060000160009054906101000a900460ff1615151461321a576040517f08c379a000000000000000000000000000000000000000000000000000000000815260040180806020018281038252602c815260200180614ad7602c913960400191505060405180910390fd5b81806040516020018082805190602001908083835b60208310613252578051825260208201915060208101905060208303925061322f565b6001836020036101000a03801982511681845116808217855250505050505090500191505060405160208183030381529060405280519060200120600660006007846040518082805190602001908083835b602083106132c757805182526020820191506020810190506020830392506132a4565b6001836020036101000a0380198251168184511680821785525050505050509050019150509081526020016040518091039020548152602001908152602001600020600401604051602001808280546001816001161561010002031660029004801561336a5780601f1061334857610100808354040283529182019161336a565b820191906000526020600020905b815481529060010190602001808311613356575b505091505060405160208183030381529060405280519060200120146133f8576040517f08c379a000000000000000000000000000000000000000000000000000000000815260040180806020018281038252600f8152602001807f656d61696c206e6f7420666f756e64000000000000000000000000000000000081525060200191505060405180910390fd5b81600660006007866040518082805190602001908083835b602083106134335780518252602082019150602081019050602083039250613410565b6001836020036101000a0380198251168184511680821785525050505050509050019150509081526020016040518091039020548152602001908152602001600020600201819055507f6c18c2323a2fff052ced450b832c70b902d963e748e582c37e9c78627259731583836040518080602001838152602001828103825284818151815260200191508051906020019080838360005b838110156134e55780820151818401526020810190506134ca565b50505050905090810190601f1680156135125780820380516001836020036101000a031916815260200191505b50935050505060405180910390a1505050565b60011515600460003373ffffffffffffffffffffffffffffffffffffffff1673ffffffffffffffffffffffffffffffffffffffff16815260200190815260200160002060000160009054906101000a900460ff161515146135d1576040517f08c379a000000000000000000000000000000000000000000000000000000000815260040180806020018281038252602c815260200180614ad7602c913960400191505060405180910390fd5b81806040516020018082805190602001908083835b6020831061360957805182526020820191506020810190506020830392506135e6565b6001836020036101000a03801982511681845116808217855250505050505090500191505060405160208183030381529060405280519060200120600660006007846040518082805190602001908083835b6020831061367e578051825260208201915060208101905060208303925061365b565b6001836020036101000a038019825116818451168082178552505050505050905001915050908152602001604051809103902054815260200190815260200160002060040160405160200180828054600181600116156101000203166002900480156137215780601f106136ff576101008083540402835291820191613721565b820191906000526020600020905b81548152906001019060200180831161370d575b505091505060405160208183030381529060405280519060200120146137af576040517f08c379a000000000000000000000000000000000000000000000000000000000815260040180806020018281038252600f8152602001807f656d61696c206e6f7420666f756e64000000000000000000000000000000000081525060200191505060405180910390fd5b81600660006007866040518082805190602001908083835b602083106137ea57805182526020820191506020810190506020830392506137c7565b6001836020036101000a03801982511681845116808217855250505050505090500191505090815260200160405180910390205481526020019081526020016000206004019080519060200190613842929190614a31565b507f17df9833ac28525114e09d17bcfed2f9946d564bb1be9676eeb6e9e1b431db648383604051808060200180602001838103835285818151815260200191508051906020019080838360005b838110156138aa57808201518184015260208101905061388f565b50505050905090810190601f1680156138d75780820380516001836020036101000a031916815260200191505b50838103825284818151815260200191508051906020019080838360005b838110156139105780820151818401526020810190506138f5565b50505050905090810190601f16801561393d5780820380516001836020036101000a031916815260200191505b5094505050505060405180910390a1505050565b60008173ffffffffffffffffffffffffffffffffffffffff16319050919050565b60011515600460003373ffffffffffffffffffffffffffffffffffffffff1673ffffffffffffffffffffffffffffffffffffffff16815260200190815260200160002060000160009054906101000a900460ff16151514613a1e576040517f08c379a000000000000000000000000000000000000000000000000000000000815260040180806020018281038252602c815260200180614ad7602c913960400191505060405180910390fd5b80806040516020018082805190602001908083835b60208310613a565780518252602082019150602081019050602083039250613a33565b6001836020036101000a03801982511681845116808217855250505050505090500191505060405160208183030381529060405280519060200120600660006007846040518082805190602001908083835b60208310613acb5780518252602082019150602081019050602083039250613aa8565b6001836020036101000a03801982511681845116808217855250505050505090500191505090815260200160405180910390205481526020019081526020016000206004016040516020018082805460018160011615610100020316600290048015613b6e5780601f10613b4c576101008083540402835291820191613b6e565b820191906000526020600020905b815481529060010190602001808311613b5a575b50509150506040516020818303038152906040528051906020012014613bfc576040517f08c379a000000000000000000000000000000000000000000000000000000000815260040180806020018281038252600f8152602001807f656d61696c206e6f7420666f756e64000000000000000000000000000000000081525060200191505060405180910390fd5b6000600660006007856040518082805190602001908083835b60208310613c385780518252602082019150602081019050602083039250613c15565b6001836020036101000a038019825116818451168082178552505050505050905001915050908152602001604051809103902054815260200190815260200160002060030160036101000a81548160ff0219169083151502179055507f38423ea25c06d2143785d918924e8169e3b337f6a91bd30ff94fdcb296a79c5b826040518080602001828103825283818151815260200191508051906020019080838360005b83811015613cf6578082015181840152602081019050613cdb565b50505050905090810190601f168015613d235780820380516001836020036101000a031916815260200191505b509250505060405180910390a15050565b60011515600460003373ffffffffffffffffffffffffffffffffffffffff1673ffffffffffffffffffffffffffffffffffffffff16815260200190815260200160002060000160009054906101000a900460ff16151514613de0576040517f08c379a000000000000000000000000000000000000000000000000000000000815260040180806020018281038252602c815260200180614ad7602c913960400191505060405180910390fd5b81806040516020018082805190602001908083835b60208310613e185780518252602082019150602081019050602083039250613df5565b6001836020036101000a03801982511681845116808217855250505050505090500191505060405160208183030381529060405280519060200120600660006007846040518082805190602001908083835b60208310613e8d5780518252602082019150602081019050602083039250613e6a565b6001836020036101000a03801982511681845116808217855250505050505090500191505090815260200160405180910390205481526020019081526020016000206004016040516020018082805460018160011615610100020316600290048015613f305780601f10613f0e576101008083540402835291820191613f30565b820191906000526020600020905b815481529060010190602001808311613f1c575b50509150506040516020818303038152906040528051906020012014613fbe576040517f08c379a000000000000000000000000000000000000000000000000000000000815260040180806020018281038252600f8152602001807f656d61696c206e6f7420666f756e64000000000000000000000000000000000081525060200191505060405180910390fd5b81600660006007866040518082805190602001908083835b60208310613ff95780518252602082019150602081019050602083039250613fd6565b6001836020036101000a038019825116818451168082178552505050505050905001915050908152602001604051809103902054815260200190815260200160002060030160006101000a81548160ff0219169083600481111561405957fe5b02179055507fec3f9e7c0ec802aac2f07f51ca8ed3fe3e71832bb9b25fa02699f1e133558b288383604051808060200183600481111561409557fe5b60ff168152602001828103825284818151815260200191508051906020019080838360005b838110156140d55780820151818401526020810190506140ba565b50505050905090810190601f1680156141025780820380516001836020036101000a031916815260200191505b50935050505060405180910390a1505050565b61411e336141c2565b614127816144ef565b614130816147a1565b50565b60008060011515831515141561414c57600090506141b8565b6000151583151514156141b75761418360018560030160019054906101000a900461ffff1661ffff1661482790919063ffffffff16565b8460030160016101000a81548161ffff021916908361ffff1602179055508360030160019054906101000a900461ffff1690505b5b8091505092915050565b6001600254141561423b576040517f08c379a00000000000000000000000000000000000000000000000000000000081526004018080602001828103825260158152602001807f61646d696e206d7573742062652070726573656e74000000000000000000000081525060200191505060405180910390fd5b60011515600460008373ffffffffffffffffffffffffffffffffffffffff1673ffffffffffffffffffffffffffffffffffffffff16815260200190815260200160002060000160009054906101000a90505050600460008273ffffffffffffffffffffffffffffffffffffffff1673ffffffffffffffffffffffffffffffffffffffff168152602001908152602001600020600101546004600060056000600160025403815260200190815260200160002060009054906101000a900473ffffffffffffffffffffffffffffffffffffffff1673ffffffffffffffffffffffffffffffffffffffff1673ffffffffffffffffffffffffffffffffffffffff1681526020019081526020016000206001018190555060056000600160025403815260200190815260200160002060009054906101000a900473ffffffffffffffffffffffffffffffffffffffff1660056000600460008573ffffffffffffffffffffffffffffffffffffffff1673ffffffffffffffffffffffffffffffffffffffff16815260200190815260200160002060010154815260200190815260200160002060006101000a81548173ffffffffffffffffffffffffffffffffffffffff021916908373ffffffffffffffffffffffffffffffffffffffff160217905550600460008273ffffffffffffffffffffffffffffffffffffffff1673ffffffffffffffffffffffffffffffffffffffff168152602001908152602001600020600080820160006101000a81549060ff02191690556001820160009055505060056000600160025403815260200190815260200160002060006101000a81549073ffffffffffffffffffffffffffffffffffffffff02191690556144ca600160025461484b90919063ffffffff16565b60028190555050565b6000808284019050838110156144e557fe5b8091505092915050565b60011515600460008373ffffffffffffffffffffffffffffffffffffffff1673ffffffffffffffffffffffffffffffffffffffff16815260200190815260200160002060000160009054906101000a900460ff1615151415614550576145ac565b6001600460008373ffffffffffffffffffffffffffffffffffffffff1673ffffffffffffffffffffffffffffffffffffffff16815260200190815260200160002060000160006101000a81548160ff0219169083151502179055505b600254600460008373ffffffffffffffffffffffffffffffffffffffff1673ffffffffffffffffffffffffffffffffffffffff168152602001908152602001600020600101819055508060056000600254815260200190815260200160002060006101000a81548173ffffffffffffffffffffffffffffffffffffffff021916908373ffffffffffffffffffffffffffffffffffffffff16021790555061465f60016002546144d390919063ffffffff16565b60028190555050565b6146706123e0565b6146e2576040517f08c379a00000000000000000000000000000000000000000000000000000000081526004018080602001828103825260028152602001807f6c6c00000000000000000000000000000000000000000000000000000000000081525060200191505060405180910390fd5b600073ffffffffffffffffffffffffffffffffffffffff166000809054906101000a900473ffffffffffffffffffffffffffffffffffffffff1673ffffffffffffffffffffffffffffffffffffffff167f8be0079c531659141344cd1fd0a4f28419497f9722a3daafe3b4186f6b6457e060405160405180910390a360008060006101000a81548173ffffffffffffffffffffffffffffffffffffffff021916908373ffffffffffffffffffffffffffffffffffffffff160217905550565b6147a96123e0565b61481b576040517f08c379a00000000000000000000000000000000000000000000000000000000081526004018080602001828103825260028152602001807f6c6c00000000000000000000000000000000000000000000000000000000000081525060200191505060405180910390fd5b61482481614862565b50565b60008082840190508361ffff168161ffff16101561484157fe5b8091505092915050565b60008282111561485757fe5b818303905092915050565b600073ffffffffffffffffffffffffffffffffffffffff168173ffffffffffffffffffffffffffffffffffffffff16141561489c57600080fd5b8073ffffffffffffffffffffffffffffffffffffffff166000809054906101000a900473ffffffffffffffffffffffffffffffffffffffff1673ffffffffffffffffffffffffffffffffffffffff167f8be0079c531659141344cd1fd0a4f28419497f9722a3daafe3b4186f6b6457e060405160405180910390a3806000806101000a81548173ffffffffffffffffffffffffffffffffffffffff021916908373ffffffffffffffffffffffffffffffffffffffff16021790555050565b6040518060e001604052806000801916815260200160008019168152602001600080191681526020016000600481111561499057fe5b8152602001600061ffff168152602001600015158152602001606081525090565b828054600181600116156101000203166002900490600052602060002090601f016020900481019282601f106149f257805160ff1916838001178555614a20565b82800160010185558215614a20579182015b82811115614a1f578251825591602001919060010190614a04565b5b509050614a2d9190614ab1565b5090565b828054600181600116156101000203166002900490600052602060002090601f016020900481019282601f10614a7257805160ff1916838001178555614aa0565b82800160010185558215614aa0579182015b82811115614a9f578251825591602001919060010190614a84565b5b509050614aad9190614ab1565b5090565b614ad391905b80821115614acf576000816000905550600101614ab7565b5090565b9056fe4f6e6c792061646d696e7320697320616c6c6f77656420746f2063616c6c20746869732066756e6374696f6ea265627a7a723158200d111001c888f6d73898e731d9ca5dda781b0dce967e35e67c9acd18dd33f03164736f6c634300050c0032",
  "source": "pragma solidity >=0.4.22 <0.6.0;\n\nimport \"./Ownable.sol\";\nimport \"./SafeMath.sol\";\n\ncontract Cert is Ownable {\n    using SafeMath for uint256;\n    using SafeMath16 for uint16;\n    \n    event AdminAdded(address indexed _addr, uint adminIndex);\n    event AdminRemoved(address indexed _addr, uint adminIndex);\n    event AdminLimitChanged(uint _newLimit);\n    event StudentAdded(string _email, bytes32 _firstName, bytes32 _lastName, bytes32 _commendation, grades _grade);\n    event StudentRemoved(string _email);\n    event StudentNameUpdated(string _email, bytes32 _newFirstName, bytes32 _newLastName);\n    event StudentCommendationUpdated(string _email, bytes32 _newCommendation);\n    event StudentGradeUpdated(string  _email, grades _newgrade);\n    event StudentEmailUpdated(string _email, string _newEmail);\n    event AssignmentAdded(string _email, string _link, assignmentStatus _status, uint16 assignmentIndex);\n    event AssignmentUpdated(string _email, assignmentStatus _status, uint16 assignmentIndex);\n    event Donate(address _addr, uint _value);\n    \n    uint public maxAdmins = 0;\n    uint public adminIndex = 0;\n    uint public studentIndex = 0;\n    \n     enum  grades {Good, Great, Outstanding, Epic, Legendary}\n     \n     enum assignmentStatus {Inactive, Pending, Completed, Cancelled}\n    \n     struct Admin {\n         bool authorized;\n         uint id;\n     }\n     \n     struct Assignment {\n         string link;\n         assignmentStatus status;\n     }\n     \n     \n      struct Student {\n         bytes32 firstName;\n         bytes32 lastName;\n         bytes32 commendation;\n         grades grade;\n         uint16 assignmentIndex;\n         bool active;\n         string email;\n        mapping (uint16 => Assignment) assignments;\n     }\n    \n     \n     mapping (address => Admin) public admins;\n     mapping (uint => address) public adminsReverseMapping;\n     mapping (uint => Student) public students;\n     mapping (string => uint) studentsReverseMapping;\n    \n    constructor () public {\n       maxAdmins = 2;\n       _addAdmin(msg.sender);\n        \n    }\n    \n    modifier onlyAdmins() {\n         require(admins[msg.sender].authorized == true, 'Only admins is allowed to call this function');\n         _;\n    }\n    \n    modifier onlyNonOwnerAdmins(address _addr) {\n         require(adminsReverseMapping[admins[_addr].id] != owner());\n         _;\n    } \n    \n    modifier onlyPermissibleAdminLimit() {\n        require(adminIndex < maxAdmins, 'admins max reached');\n        _;\n    }\n    \n    modifier onlyNonExistentStudents(string memory _email) {\n      require(keccak256(abi.encodePacked(students[studentsReverseMapping[_email]].email)) != keccak256(abi.encodePacked( _email)), 'email already exist');\n        _;\n    }\n    \n    modifier onlyValidStudents(string memory _email) {\n      require( keccak256(abi.encodePacked(students[studentsReverseMapping[_email]].email)) == keccak256(abi.encodePacked( _email)), 'email not found');\n        _;\n    }\n    \n    function addAdmin(address _addr) public onlyOwner onlyPermissibleAdminLimit() {\n         _addAdmin(_addr);\n        emit AdminAdded( _addr, adminIndex);\n    }\n\n    function _addAdmin(address _addr) internal {\n        if(admins[_addr].authorized == true) {}\n        else {\n        admins[_addr].authorized = true;    \n        }\n        admins[_addr].id = adminIndex;\n        adminsReverseMapping[adminIndex] = _addr;\n        adminIndex = adminIndex.add(1);\n    }\n    \n    function removeAdmin(address _addr) public onlyOwner {\n        require(_addr != msg.sender);\n        _removeAdmin(_addr);\n        emit AdminRemoved(_addr, adminIndex);\n    }\n    \n    function _removeAdmin(address _addr) private  {\n        if (adminIndex == 1) {\n            revert('admin must be present');\n        }\n        if(admins[_addr].authorized == true){}\n        //uint \n        admins[adminsReverseMapping[adminIndex - 1]].id = admins[_addr].id;\n        adminsReverseMapping[admins[_addr].id] = adminsReverseMapping[adminIndex - 1];\n        delete admins[_addr];\n        delete adminsReverseMapping[adminIndex -1];\n        adminIndex = adminIndex.sub(1);\n    }\n   \n    function changeAdminLimit (uint _newLimit) public  {\n        require(_newLimit > 1 && _newLimit > adminIndex);\n        maxAdmins = _newLimit;\n        emit AdminLimitChanged( _newLimit);\n    }\n   \n    function transferOwnership (address _addr)  public {\n        \n        _removeAdmin(msg.sender);\n        _addAdmin(_addr);\n        super.transferOwnership(_addr);\n    }\n    \n    function renounceOwnership() public {\n        _removeAdmin(msg.sender);\n        super.renounceOwnership();\n    }\n    \n    function addStudent(bytes32 _firstName, bytes32 _lastName, bytes32 _commendation, grades _grade, string memory _email) public onlyAdmins onlyNonExistentStudents(_email)  {\n        Student memory stud;\n        stud.assignmentIndex = 0;\n        stud.firstName = _firstName;\n        stud.lastName = _lastName;\n        stud.commendation = _commendation;\n        stud.grade = _grade;\n        stud.email = _email;\n        stud.active = true;\n        students[studentIndex] = stud;\n        studentsReverseMapping[_email] = studentIndex;\n        studentIndex = studentIndex.add(1);\n        emit StudentAdded(_email,_firstName, _lastName, _commendation, _grade);\n    }\n    \n     function removeStudent(string memory _email) public  onlyAdmins onlyValidStudents(_email)  {\n      students[studentsReverseMapping[_email]].active = false;\n      emit StudentRemoved(_email);\n    }\n    \n    function changeStudentName(string memory _email, bytes32 _newFirstName, bytes32 _newLastName) public onlyAdmins onlyValidStudents(_email) {\n        students[studentsReverseMapping[_email]].firstName = _newFirstName;\n        students[studentsReverseMapping[_email]].lastName = _newLastName;\n       emit StudentNameUpdated(_email, _newFirstName, _newLastName);\n    }\n    \n    function changeStudentCommendation(string memory _email, bytes32 _newCommendation) public onlyAdmins onlyValidStudents(_email) {\n        students[studentsReverseMapping[_email]].commendation = _newCommendation;\n       emit StudentCommendationUpdated(_email, _newCommendation);\n    }\n    \n    function changeStudentGrade(string memory _email, grades _newgrade) public onlyAdmins onlyValidStudents(_email) {\n        students[studentsReverseMapping[_email]].grade = _newgrade;\n        emit StudentGradeUpdated( _email, _newgrade);\n    }\n    \n    function changeStudentEmail(string memory _email, string memory _newEmail) public onlyAdmins onlyValidStudents(_email) {\n        students[studentsReverseMapping[_email]].email = _newEmail;\n        emit StudentEmailUpdated(_email, _newEmail);\n    } \n    \n    function _calcAndFetchAssignmentIndex(Student storage scholar, bool isFinalProject) internal  returns(uint16) {\n        uint16 assignmentIndex;\n        \n        if(isFinalProject == true) {\n          assignmentIndex = 0; \n        }\n        else if (isFinalProject == false) {\n          scholar.assignmentIndex = scholar.assignmentIndex.add(1);\n          assignmentIndex = scholar.assignmentIndex;\n        }\n        \n         \n        return assignmentIndex;\n    }\n    function addAssignment(string memory _email, string memory _link, assignmentStatus _status, bool isFinalProject) public onlyAdmins onlyValidStudents(_email) {\n        _calcAndFetchAssignmentIndex(students[studentsReverseMapping[_email]], isFinalProject);\n        students[studentsReverseMapping[_email]].assignments[students[studentsReverseMapping[_email]].assignmentIndex] = Assignment(_link, _status);\n        uint16 assignmentIndex =  students[studentsReverseMapping[_email]].assignmentIndex;\n        emit AssignmentAdded(_email, _link, _status, assignmentIndex);\n    }\n    \n    function updateAssignmentStatus(string memory _email, assignmentStatus _status, bool isFinalProject) public onlyAdmins onlyValidStudents(_email) {\n       _calcAndFetchAssignmentIndex(students[studentsReverseMapping[_email]], isFinalProject);\n       students[studentsReverseMapping[_email]].assignments[students[studentsReverseMapping[_email]].assignmentIndex].status = _status;\n        uint16 assignmentIndex =  students[studentsReverseMapping[_email]].assignmentIndex;\n        emit AssignmentUpdated(_email, _status, assignmentIndex);\n    }\n    \n    function getAssignmentInfo(string memory _email, uint16 _assignmentIndex) view public onlyValidStudents(_email) returns(string memory link, assignmentStatus status ) {\n        require(students[studentsReverseMapping[_email]].assignmentIndex >= 0);\n        require(students[studentsReverseMapping[_email]].assignmentIndex >= _assignmentIndex, 'assignmentIndex above current Id');\n        return(students[studentsReverseMapping[_email]].assignments[_assignmentIndex].link, students[studentsReverseMapping[_email]].assignments[_assignmentIndex].status);\n    }\n    \n    function () external payable {\n    }\n    \n    function donateEth(uint _amount) external payable {\n       require(_amount >= 0.005 ether);\n      _amount = msg.value;\n      address(this).transfer(msg.value);\n    emit Donate(address(this), msg.value);\n    }\n    \n    function withdrawEth() public payable onlyOwner {\n      address payable _owner = address(uint160(owner()));\n      uint bal = address(this).balance;\n      _owner.transfer(bal);\n      emit Donate(msg.sender, bal);\n    }\n    \nfunction ownBal(address _addr) public view returns(uint) {\n     return address(_addr).balance;\n    }\n\n}",
  "sourcePath": "C:/Users/nwagb/Documents/champ/contracts/cert.sol",
  "compiler": {
    "name": "solc",
    "version": "0.5.12+commit.7709ece9.Emscripten.clang"
  },
  "schemaVersion": "3.0.19",
  "updatedAt": "2020-02-28T20:52:46.712Z",
  "networkType": "ethereum",
  "devdoc": {
    "methods": {
      "isOwner()": {
        "return": "true if `msg.sender` is the owner of the contract."
      },
      "owner()": {
        "return": "the address of the owner."
      }
    }
  },
  "userdoc": {
    "methods": {}
  }
}